{
  "abi": [
    {
      "inputs": [
        {
          "internalType": "uint256",
          "name": "_community",
          "type": "uint256"
        },
        {
          "internalType": "address",
          "name": "_masterContract",
          "type": "address"
        }
      ],
      "stateMutability": "nonpayable",
      "type": "constructor"
    },
    {
      "anonymous": false,
      "inputs": [
        {
          "indexed": true,
          "internalType": "address",
          "name": "previousOwner",
          "type": "address"
        },
        {
          "indexed": true,
          "internalType": "address",
          "name": "newOwner",
          "type": "address"
        }
      ],
      "name": "OwnershipTransferred",
      "type": "event"
    },
    {
      "inputs": [
        {
          "internalType": "address",
          "name": "",
          "type": "address"
        }
      ],
      "name": "Units",
      "outputs": [
        {
          "internalType": "uint256",
          "name": "",
          "type": "uint256"
        }
      ],
      "stateMutability": "view",
      "type": "function"
    },
    {
      "inputs": [],
      "name": "aTokenContract",
      "outputs": [
        {
          "internalType": "contract IAToken",
          "name": "",
          "type": "address"
        }
      ],
      "stateMutability": "view",
      "type": "function"
    },
    {
      "inputs": [],
      "name": "aavePool",
      "outputs": [
        {
          "internalType": "contract IPool",
          "name": "",
          "type": "address"
        }
      ],
      "stateMutability": "view",
      "type": "function"
    },
    {
      "inputs": [
        {
          "internalType": "string",
          "name": "_name",
          "type": "string"
        },
        {
          "internalType": "uint256",
          "name": "_amount",
          "type": "uint256"
        },
        {
          "internalType": "address",
          "name": "_supWallet",
          "type": "address"
        },
        {
          "internalType": "uint256",
          "name": "_day",
          "type": "uint256"
        }
      ],
      "name": "addSuplier",
      "outputs": [],
      "stateMutability": "payable",
      "type": "function"
    },
    {
      "inputs": [
        {
          "internalType": "uint256",
          "name": "_num",
          "type": "uint256"
        },
        {
          "internalType": "string",
          "name": "_name",
          "type": "string"
        },
        {
          "internalType": "address",
          "name": "_ownerW",
          "type": "address"
        }
      ],
      "name": "addUnit",
      "outputs": [],
      "stateMutability": "payable",
      "type": "function"
    },
    {
      "inputs": [],
      "name": "contractBalance",
      "outputs": [
        {
          "internalType": "uint256",
          "name": "",
          "type": "uint256"
        }
      ],
      "stateMutability": "view",
      "type": "function"
    },
    {
      "inputs": [],
      "name": "deployNFTs",
      "outputs": [],
      "stateMutability": "nonpayable",
      "type": "function"
    },
    {
      "inputs": [
        {
          "internalType": "address",
          "name": "",
          "type": "address"
        }
      ],
      "name": "depositedAmount",
      "outputs": [
        {
          "internalType": "uint256",
          "name": "",
          "type": "uint256"
        }
      ],
      "stateMutability": "view",
      "type": "function"
    },
    {
      "inputs": [
        {
          "internalType": "uint256",
          "name": "_fee",
          "type": "uint256"
        },
        {
          "internalType": "uint256",
          "name": "_unit",
          "type": "uint256"
        },
        {
          "internalType": "uint256",
          "name": "_month",
          "type": "uint256"
        },
        {
          "internalType": "uint256",
          "name": "_year",
          "type": "uint256"
        }
      ],
      "name": "depositt",
      "outputs": [],
      "stateMutability": "nonpayable",
      "type": "function"
    },
    {
      "inputs": [],
      "name": "getBalance",
      "outputs": [
        {
          "internalType": "uint256",
          "name": "",
          "type": "uint256"
        }
      ],
      "stateMutability": "view",
      "type": "function"
    },
    {
      "inputs": [],
      "name": "getUnit",
      "outputs": [
        {
          "internalType": "uint256",
          "name": "",
          "type": "uint256"
        }
      ],
      "stateMutability": "view",
      "type": "function"
    },
    {
      "inputs": [
        {
          "internalType": "address",
          "name": "",
          "type": "address"
        },
        {
          "internalType": "address",
          "name": "",
          "type": "address"
        },
        {
          "internalType": "uint256",
          "name": "",
          "type": "uint256"
        },
        {
          "internalType": "bytes",
          "name": "",
          "type": "bytes"
        }
      ],
      "name": "onERC721Received",
      "outputs": [
        {
          "internalType": "bytes4",
          "name": "",
          "type": "bytes4"
        }
      ],
      "stateMutability": "nonpayable",
      "type": "function"
    },
    {
      "inputs": [],
      "name": "owner",
      "outputs": [
        {
          "internalType": "address",
          "name": "",
          "type": "address"
        }
      ],
      "stateMutability": "view",
      "type": "function"
    },
    {
      "inputs": [],
      "name": "renounceOwnership",
      "outputs": [],
      "stateMutability": "nonpayable",
      "type": "function"
    },
    {
      "inputs": [],
      "name": "stableAddress",
      "outputs": [
        {
          "internalType": "address",
          "name": "",
          "type": "address"
        }
      ],
      "stateMutability": "view",
      "type": "function"
    },
    {
      "inputs": [
        {
          "internalType": "uint256",
          "name": "_idSup",
          "type": "uint256"
        },
        {
          "internalType": "uint256",
          "name": "_amount",
          "type": "uint256"
        },
        {
          "internalType": "uint256",
          "name": "_year",
          "type": "uint256"
        },
        {
          "internalType": "uint256",
          "name": "_month",
          "type": "uint256"
        }
      ],
      "name": "suplierPayme",
      "outputs": [],
      "stateMutability": "nonpayable",
      "type": "function"
    },
    {
      "inputs": [
        {
          "internalType": "uint256",
          "name": "_amount",
          "type": "uint256"
        }
      ],
      "name": "supplyToPool",
      "outputs": [],
      "stateMutability": "nonpayable",
      "type": "function"
    },
    {
      "inputs": [],
      "name": "tableNamePay",
      "outputs": [
        {
          "internalType": "string",
          "name": "",
          "type": "string"
        }
      ],
      "stateMutability": "view",
      "type": "function"
    },
    {
      "inputs": [],
      "name": "tableNameSP",
      "outputs": [
        {
          "internalType": "string",
          "name": "",
          "type": "string"
        }
      ],
      "stateMutability": "view",
      "type": "function"
    },
    {
      "inputs": [],
      "name": "tableNameSup",
      "outputs": [
        {
          "internalType": "string",
          "name": "",
          "type": "string"
        }
      ],
      "stateMutability": "view",
      "type": "function"
    },
    {
      "inputs": [],
      "name": "tableNameUnit",
      "outputs": [
        {
          "internalType": "string",
          "name": "",
          "type": "string"
        }
      ],
      "stateMutability": "view",
      "type": "function"
    },
    {
      "inputs": [
        {
          "internalType": "address",
          "name": "newOwner",
          "type": "address"
        }
      ],
      "name": "transferOwnership",
      "outputs": [],
      "stateMutability": "nonpayable",
      "type": "function"
    },
    {
      "inputs": [
        {
          "internalType": "uint256",
          "name": "_amount",
          "type": "uint256"
        }
      ],
      "name": "withdrawFromPool",
      "outputs": [],
      "stateMutability": "nonpayable",
      "type": "function"
    }
  ],
  "bytecode": "6080604052600680546001600160a01b031916734b48841d4b32c4650e4abc117a03fe8b51f38f6817905534801561003657600080fd5b506040516128a93803806128a983398101604081905261005591610150565b61005e33610100565b600491909155600580546001600160a01b039092166001600160a01b0319928316179055600780548216331790556001600e81905560118190556014819055600b5560178054821673f368ff03831accc37bee8461523560f06918faed179055601680548216731e7deb5e5b6d92d8c51312c15fa50d9b8ae76f1a17905560158054909116737b4bf48b219765392a839d6a47178a3633d412a017905561018d565b600080546001600160a01b038381166001600160a01b0319831681178455604051919092169283917f8be0079c531659141344cd1fd0a4f28419497f9722a3daafe3b4186f6b6457e09190a35050565b6000806040838503121561016357600080fd5b825160208401519092506001600160a01b038116811461018257600080fd5b809150509250929050565b61270d8061019c6000396000f3fe6080604052600436106200015b5760003560e01c80638b7afe2e11620000c5578063c42baefe1162000078578063c42baefe14620003b6578063c4c6c23714620003d8578063c9e2f97b14620003fa578063db74f18f1462000412578063e55186a11462000443578063f2fde38b146200046757600080fd5b80638b7afe2e14620002f35780638da5cb5b146200030b57806398d0527d146200033f578063a03e4bc31462000357578063b531251a1462000379578063c4142927146200039157600080fd5b80634adc4ae7116200011e5780634adc4ae7146200023b578063513f7d4d1462000260578063715018a6146200028757806371eacbbb146200029f5780637746ebc814620002b6578063824a461714620002db57600080fd5b806312065fe01462000160578063150b7a02146200018357806330fc43ed14620001cc578063389a46f714620001f35780634a4643f7146200020a575b600080fd5b3480156200016d57600080fd5b50475b6040519081526020015b60405180910390f35b3480156200019057600080fd5b50620001b2620001a236600462000ef4565b630a85bd0160e11b949350505050565b6040516001600160e01b031990911681526020016200017a565b348015620001d957600080fd5b50620001f1620001eb36600462000f79565b6200048c565b005b620001f16200020436600462000fbd565b620006ca565b3480156200021757600080fd5b50620001706200022936600462001022565b60196020526000908152604090205481565b3480156200024857600080fd5b50620001f16200025a36600462001040565b6200070f565b3480156200026d57600080fd5b506200027862000851565b6040516200017a919062001073565b3480156200029457600080fd5b50620001f1620008e7565b620001f1620002b0366004620010cb565b62000922565b348015620002c357600080fd5b50620001f1620002d536600462000f79565b6200094e565b348015620002e857600080fd5b506200027862000ad7565b3480156200030057600080fd5b506200017060185481565b3480156200031857600080fd5b506000546001600160a01b03165b6040516001600160a01b0390911681526020016200017a565b3480156200034c57600080fd5b50620001f162000ae6565b3480156200036457600080fd5b5060175462000326906001600160a01b031681565b3480156200038657600080fd5b506200027862000b61565b3480156200039e57600080fd5b50620001f1620003b036600462001040565b62000b70565b348015620003c357600080fd5b5060165462000326906001600160a01b031681565b348015620003e557600080fd5b5060155462000326906001600160a01b031681565b3480156200040757600080fd5b506200027862000d35565b3480156200041f57600080fd5b50620001706200043136600462001022565b60016020526000908152604090205481565b3480156200045057600080fd5b503360009081526001602052604090205462000170565b3480156200047457600080fd5b50620001f16200048636600462001022565b62000d44565b6000546001600160a01b03163314620004c25760405162461bcd60e51b8152600401620004b99062001128565b60405180910390fd5b6016546040516370a0823160e01b81523060048201526001600160a01b03909116906370a0823190602401602060405180830381865afa1580156200050b573d6000803e3d6000fd5b505050506040513d601f19601f820116820180604052508101906200053191906200115d565b811115620005795760405162461bcd60e51b8152602060048201526014602482015273496e73756666696369656e742061546f6b656e7360601b6044820152606401620004b9565b601754601554604051631a4ca37b60e21b81526001600160a01b039182166004820152602481018490523060448201529116906369328dec906064016020604051808303816000875af1158015620005d5573d6000803e3d6000fd5b505050506040513d601f19601f82011682018060405250810190620005fb91906200115d565b506015546007546001600160a01b039182169163a9059cbb9116620006226064856200118d565b6040516001600160e01b031960e085901b1681526001600160a01b03909216600483015260248201526044016020604051808303816000875af11580156200066e573d6000803e3d6000fd5b505050506040513d601f19601f82011682018060405250810190620006949190620011b0565b50620006a26064826200118d565b620006af906063620011d4565b60186000828254620006c29190620011f6565b909155505050565b60118054600090815260026020526040812080546001600160a01b0319166001600160a01b03861617905581549190620007048362001211565b919050555050505050565b6000546001600160a01b031633146200073c5760405162461bcd60e51b8152600401620004b99062001128565b824711620007825760405162461bcd60e51b81526020600482015260126024820152714e6f7420656e6f756768206d6f6e6579212160701b6044820152606401620004b9565b6000848152600260205260408082205490516001600160a01b0390911691908190839087908381818185875af1925050503d8060008114620007e1576040519150601f19603f3d011682016040523d82523d6000602084013e620007e6565b606091505b509150915081620008315760405162461bcd60e51b81526020600482015260146024820152736e6f732066616c6c6f2065737461206d6164726560601b6044820152606401620004b9565b60148054906000620008438362001211565b919050555050505050505050565b6012805462000860906200122f565b80601f01602080910402602001604051908101604052809291908181526020018280546200088e906200122f565b8015620008df5780601f10620008b357610100808354040283529160200191620008df565b820191906000526020600020905b815481529060010190602001808311620008c157829003601f168201915b505050505081565b6000546001600160a01b03163314620009145760405162461bcd60e51b8152600401620004b99062001128565b62000920600062000de6565b565b336000908152600160205260408120849055600b805491620009448362001211565b9190505550505050565b6000546001600160a01b031633146200097b5760405162461bcd60e51b8152600401620004b99062001128565b601854811115620009cf5760405162461bcd60e51b815260206004820152601e60248201527f496e73756666696369656e742066756e647320696e20636f6e747261637400006044820152606401620004b9565b60155460175460405163095ea7b360e01b81526001600160a01b0391821660048201526024810184905291169063095ea7b3906044016020604051808303816000875af115801562000a25573d6000803e3d6000fd5b505050506040513d601f19601f8201168201806040525081019062000a4b9190620011b0565b5060175460155460405163617ba03760e01b81526001600160a01b039182166004820152602481018490523060448201526000606482015291169063617ba03790608401600060405180830381600087803b15801562000aaa57600080fd5b505af115801562000abf573d6000803e3d6000fd5b505050508060186000828254620006c291906200126c565b600c805462000860906200122f565b6000546001600160a01b0316331462000b135760405162461bcd60e51b8152600401620004b99062001128565b60405162000b219062000e36565b604051809103906000f08015801562000b3e573d6000803e3d6000fd5b50600880546001600160a01b0319166001600160a01b0392909216919091179055565b6009805462000860906200122f565b601554604051636eb1769f60e11b815233600482015230602482015285916001600160a01b03169063dd62ed3e90604401602060405180830381865afa15801562000bbf573d6000803e3d6000fd5b505050506040513d601f19601f8201168201806040525081019062000be591906200115d565b101562000c265760405162461bcd60e51b815260206004820152600e60248201526d1b9959591cc8185c1c1c9bdd985b60921b6044820152606401620004b9565b6015546040516323b872dd60e01b8152336004820152306024820152604481018690526001600160a01b03909116906323b872dd906064016020604051808303816000875af115801562000c7e573d6000803e3d6000fd5b505050506040513d601f19601f8201168201806040525081019062000ca49190620011b0565b503360009081526019602052604081208590556018805486929062000ccb908490620011f6565b9091555050600854604051637b085d7360e11b81523360048201526001600160a01b039091169063f610bae690602401600060405180830381600087803b15801562000d1657600080fd5b505af115801562000d2b573d6000803e3d6000fd5b5050505050505050565b600f805462000860906200122f565b6000546001600160a01b0316331462000d715760405162461bcd60e51b8152600401620004b99062001128565b6001600160a01b03811662000dd85760405162461bcd60e51b815260206004820152602660248201527f4f776e61626c653a206e6577206f776e657220697320746865207a65726f206160448201526564647265737360d01b6064820152608401620004b9565b62000de38162000de6565b50565b600080546001600160a01b038381166001600160a01b0319831681178455604051919092169283917f8be0079c531659141344cd1fd0a4f28419497f9722a3daafe3b4186f6b6457e09190a35050565b611451806200128783390190565b80356001600160a01b038116811462000e5c57600080fd5b919050565b634e487b7160e01b600052604160045260246000fd5b600067ffffffffffffffff8084111562000e955762000e9562000e61565b604051601f8501601f19908116603f0116810190828211818310171562000ec05762000ec062000e61565b8160405280935085815286868601111562000eda57600080fd5b858560208301376000602087830101525050509392505050565b6000806000806080858703121562000f0b57600080fd5b62000f168562000e44565b935062000f266020860162000e44565b925060408501359150606085013567ffffffffffffffff81111562000f4a57600080fd5b8501601f8101871362000f5c57600080fd5b62000f6d8782356020840162000e77565b91505092959194509250565b60006020828403121562000f8c57600080fd5b5035919050565b600082601f83011262000fa557600080fd5b62000fb68383356020850162000e77565b9392505050565b6000806000806080858703121562000fd457600080fd5b843567ffffffffffffffff81111562000fec57600080fd5b62000ffa8782880162000f93565b94505060208501359250620010126040860162000e44565b9396929550929360600135925050565b6000602082840312156200103557600080fd5b62000fb68262000e44565b600080600080608085870312156200105757600080fd5b5050823594602084013594506040840135936060013592509050565b600060208083528351808285015260005b81811015620010a25785810183015185820160400152820162001084565b81811115620010b5576000604083870101525b50601f01601f1916929092016040019392505050565b600080600060608486031215620010e157600080fd5b83359250602084013567ffffffffffffffff8111156200110057600080fd5b6200110e8682870162000f93565b9250506200111f6040850162000e44565b90509250925092565b6020808252818101527f4f776e61626c653a2063616c6c6572206973206e6f7420746865206f776e6572604082015260600190565b6000602082840312156200117057600080fd5b5051919050565b634e487b7160e01b600052601160045260246000fd5b600082620011ab57634e487b7160e01b600052601260045260246000fd5b500490565b600060208284031215620011c357600080fd5b8151801515811462000fb657600080fd5b6000816000190483118215151615620011f157620011f162001177565b500290565b600082198211156200120c576200120c62001177565b500190565b600060001982141562001228576200122862001177565b5060010190565b600181811c908216806200124457607f821691505b602082108114156200126657634e487b7160e01b600052602260045260246000fd5b50919050565b60008282101562001281576200128162001177565b50039056fe60806040523480156200001157600080fd5b50604080518082018252600a81526914185e5b595b9d13919560b21b6020808301918252835180850190945260048452631413919560e21b908401528151919291620000609160009162000096565b5080516200007690600190602084019062000096565b5050600060065550600780546001600160a01b0319163317905562000179565b828054620000a4906200013c565b90600052602060002090601f016020900481019282620000c8576000855562000113565b82601f10620000e357805160ff191683800117855562000113565b8280016001018555821562000113579182015b8281111562000113578251825591602001919060010190620000f6565b506200012192915062000125565b5090565b5b8082111562000121576000815560010162000126565b600181811c908216806200015157607f821691505b602082108114156200017357634e487b7160e01b600052602260045260246000fd5b50919050565b6112c880620001896000396000f3fe608060405234801561001057600080fd5b50600436106101005760003560e01c80638da5cb5b11610097578063c87b56dd11610066578063c87b56dd1461021d578063d082e38114610230578063e985e9c514610239578063f610bae61461027557600080fd5b80638da5cb5b146101dc57806395d89b41146101ef578063a22cb465146101f7578063b88d4fde1461020a57600080fd5b806323b872dd116100d357806323b872dd1461018257806342842e0e146101955780636352211e146101a857806370a08231146101bb57600080fd5b806301ffc9a71461010557806306fdde031461012d578063081812fc14610142578063095ea7b31461016d575b600080fd5b610118610113366004610e1e565b610288565b60405190151581526020015b60405180910390f35b6101356102da565b6040516101249190610e9a565b610155610150366004610ead565b61036c565b6040516001600160a01b039091168152602001610124565b61018061017b366004610ee2565b610406565b005b610180610190366004610f0c565b61051c565b6101806101a3366004610f0c565b61054d565b6101556101b6366004610ead565b610568565b6101ce6101c9366004610f48565b6105df565b604051908152602001610124565b600754610155906001600160a01b031681565b610135610666565b610180610205366004610f63565b610675565b610180610218366004610fb5565b610684565b61013561022b366004610ead565b6106bc565b6101ce60065481565b610118610247366004611091565b6001600160a01b03918216600090815260056020908152604080832093909416825291909152205460ff1690565b610180610283366004610f48565b610769565b60006001600160e01b031982166380ac58cd60e01b14806102b957506001600160e01b03198216635b5e139f60e01b145b806102d457506301ffc9a760e01b6001600160e01b03198316145b92915050565b6060600080546102e9906110c4565b80601f0160208091040260200160405190810160405280929190818152602001828054610315906110c4565b80156103625780601f1061033757610100808354040283529160200191610362565b820191906000526020600020905b81548152906001019060200180831161034557829003601f168201915b5050505050905090565b6000818152600260205260408120546001600160a01b03166103ea5760405162461bcd60e51b815260206004820152602c60248201527f4552433732313a20617070726f76656420717565727920666f72206e6f6e657860448201526b34b9ba32b73a103a37b5b2b760a11b60648201526084015b60405180910390fd5b506000908152600460205260409020546001600160a01b031690565b600061041182610568565b9050806001600160a01b0316836001600160a01b0316141561047f5760405162461bcd60e51b815260206004820152602160248201527f4552433732313a20617070726f76616c20746f2063757272656e74206f776e656044820152603960f91b60648201526084016103e1565b336001600160a01b038216148061049b575061049b8133610247565b61050d5760405162461bcd60e51b815260206004820152603860248201527f4552433732313a20617070726f76652063616c6c6572206973206e6f74206f7760448201527f6e6572206e6f7220617070726f76656420666f7220616c6c000000000000000060648201526084016103e1565b61051783836107a2565b505050565b6105263382610810565b6105425760405162461bcd60e51b81526004016103e1906110ff565b610517838383610907565b61051783838360405180602001604052806000815250610684565b6000818152600260205260408120546001600160a01b0316806102d45760405162461bcd60e51b815260206004820152602960248201527f4552433732313a206f776e657220717565727920666f72206e6f6e657869737460448201526832b73a103a37b5b2b760b91b60648201526084016103e1565b60006001600160a01b03821661064a5760405162461bcd60e51b815260206004820152602a60248201527f4552433732313a2062616c616e636520717565727920666f7220746865207a65604482015269726f206164647265737360b01b60648201526084016103e1565b506001600160a01b031660009081526003602052604090205490565b6060600180546102e9906110c4565b610680338383610aa3565b5050565b61068e3383610810565b6106aa5760405162461bcd60e51b81526004016103e1906110ff565b6106b684848484610b72565b50505050565b6000818152600260205260409020546060906001600160a01b031661073b5760405162461bcd60e51b815260206004820152602f60248201527f4552433732314d657461646174613a2055524920717565727920666f72206e6f60448201526e3732bc34b9ba32b73a103a37b5b2b760891b60648201526084016103e1565b610743610ba5565b6040516020016107539190611150565b6040516020818303038152906040529050919050565b6007546001600160a01b0316331461078057600080fd5b60065461078d8282610bc5565b60065461079b906001611182565b6006555050565b600081815260046020526040902080546001600160a01b0319166001600160a01b03841690811790915581906107d782610568565b6001600160a01b03167f8c5be1e5ebec7d5bd14f71427d1e84f3dd0314c0f7b2291e5b200ac8c7c3b92560405160405180910390a45050565b6000818152600260205260408120546001600160a01b03166108895760405162461bcd60e51b815260206004820152602c60248201527f4552433732313a206f70657261746f7220717565727920666f72206e6f6e657860448201526b34b9ba32b73a103a37b5b2b760a11b60648201526084016103e1565b600061089483610568565b9050806001600160a01b0316846001600160a01b031614806108cf5750836001600160a01b03166108c48461036c565b6001600160a01b0316145b806108ff57506001600160a01b0380821660009081526005602090815260408083209388168352929052205460ff165b949350505050565b826001600160a01b031661091a82610568565b6001600160a01b03161461097e5760405162461bcd60e51b815260206004820152602560248201527f4552433732313a207472616e736665722066726f6d20696e636f72726563742060448201526437bbb732b960d91b60648201526084016103e1565b6001600160a01b0382166109e05760405162461bcd60e51b8152602060048201526024808201527f4552433732313a207472616e7366657220746f20746865207a65726f206164646044820152637265737360e01b60648201526084016103e1565b6109eb6000826107a2565b6001600160a01b0383166000908152600360205260408120805460019290610a1490849061119a565b90915550506001600160a01b0382166000908152600360205260408120805460019290610a42908490611182565b909155505060008181526002602052604080822080546001600160a01b0319166001600160a01b0386811691821790925591518493918716917fddf252ad1be2c89b69c2b068fc378daa952ba7f163c4a11628f55a4df523b3ef91a4505050565b816001600160a01b0316836001600160a01b03161415610b055760405162461bcd60e51b815260206004820152601960248201527f4552433732313a20617070726f766520746f2063616c6c65720000000000000060448201526064016103e1565b6001600160a01b03838116600081815260056020908152604080832094871680845294825291829020805460ff191686151590811790915591519182527f17307eab39ab6107e8899845ad3d59bd9653f200f220920489ca2b5937696c31910160405180910390a3505050565b610b7d848484610907565b610b8984848484610d07565b6106b65760405162461bcd60e51b81526004016103e1906111b1565b606060405180606001604052806035815260200161125e60359139905090565b6001600160a01b038216610c1b5760405162461bcd60e51b815260206004820181905260248201527f4552433732313a206d696e7420746f20746865207a65726f206164647265737360448201526064016103e1565b6000818152600260205260409020546001600160a01b031615610c805760405162461bcd60e51b815260206004820152601c60248201527f4552433732313a20746f6b656e20616c7265616479206d696e7465640000000060448201526064016103e1565b6001600160a01b0382166000908152600360205260408120805460019290610ca9908490611182565b909155505060008181526002602052604080822080546001600160a01b0319166001600160a01b03861690811790915590518392907fddf252ad1be2c89b69c2b068fc378daa952ba7f163c4a11628f55a4df523b3ef908290a45050565b60006001600160a01b0384163b15610dfa57604051630a85bd0160e11b81526001600160a01b0385169063150b7a0290610d4b903390899088908890600401611203565b6020604051808303816000875af1925050508015610d86575060408051601f3d908101601f19168201909252610d8391810190611240565b60015b610de0573d808015610db4576040519150601f19603f3d011682016040523d82523d6000602084013e610db9565b606091505b508051610dd85760405162461bcd60e51b81526004016103e1906111b1565b805181602001fd5b6001600160e01b031916630a85bd0160e11b1490506108ff565b506001949350505050565b6001600160e01b031981168114610e1b57600080fd5b50565b600060208284031215610e3057600080fd5b8135610e3b81610e05565b9392505050565b60005b83811015610e5d578181015183820152602001610e45565b838111156106b65750506000910152565b60008151808452610e86816020860160208601610e42565b601f01601f19169290920160200192915050565b602081526000610e3b6020830184610e6e565b600060208284031215610ebf57600080fd5b5035919050565b80356001600160a01b0381168114610edd57600080fd5b919050565b60008060408385031215610ef557600080fd5b610efe83610ec6565b946020939093013593505050565b600080600060608486031215610f2157600080fd5b610f2a84610ec6565b9250610f3860208501610ec6565b9150604084013590509250925092565b600060208284031215610f5a57600080fd5b610e3b82610ec6565b60008060408385031215610f7657600080fd5b610f7f83610ec6565b915060208301358015158114610f9457600080fd5b809150509250929050565b634e487b7160e01b600052604160045260246000fd5b60008060008060808587031215610fcb57600080fd5b610fd485610ec6565b9350610fe260208601610ec6565b925060408501359150606085013567ffffffffffffffff8082111561100657600080fd5b818701915087601f83011261101a57600080fd5b81358181111561102c5761102c610f9f565b604051601f8201601f19908116603f0116810190838211818310171561105457611054610f9f565b816040528281528a602084870101111561106d57600080fd5b82602086016020830137600060208483010152809550505050505092959194509250565b600080604083850312156110a457600080fd5b6110ad83610ec6565b91506110bb60208401610ec6565b90509250929050565b600181811c908216806110d857607f821691505b602082108114156110f957634e487b7160e01b600052602260045260246000fd5b50919050565b60208082526031908201527f4552433732313a207472616e736665722063616c6c6572206973206e6f74206f6040820152701ddb995c881b9bdc88185c1c1c9bdd9959607a1b606082015260800190565b60008251611162818460208701610e42565b9190910192915050565b634e487b7160e01b600052601160045260246000fd5b600082198211156111955761119561116c565b500190565b6000828210156111ac576111ac61116c565b500390565b60208082526032908201527f4552433732313a207472616e7366657220746f206e6f6e20455243373231526560408201527131b2b4bb32b91034b6b83632b6b2b73a32b960711b606082015260800190565b6001600160a01b038581168252841660208201526040810183905260806060820181905260009061123690830184610e6e565b9695505050505050565b60006020828403121561125257600080fd5b8151610e3b81610e0556fe697066733a2f2f516d5934317471573271666d48346f4d486a5946333739446538794e6556476d55344c6166465168456751637575a26469706673582212206c223ba5d8224ac7b80ab507cd59a6e867f34eb4657df60425ddb12f52436c6a64736f6c634300080a0033a2646970667358221220fe634b72c1c2aaa6dbda6fa883aa0575feebc285a790d07849f3132dd3a4763e64736f6c634300080a0033",
  "bytecodeSha1": "5a7c55d7fa150c5a7f17ca50f77737c00553a437",
  "compiler": {
    "evm_version": "istanbul",
    "optimizer": {
      "enabled": true,
      "runs": 200
    },
    "version": "0.8.10+commit.fc410830"
  },
  "contractName": "Child",
  "language": "Solidity",
  "natspec": {
    "kind": "dev",
    "methods": {
      "onERC721Received(address,address,uint256,bytes)": {
        "details": "See {IERC721Receiver-onERC721Received}. Always returns `IERC721Receiver.onERC721Received.selector`."
      },
      "owner()": {
        "details": "Returns the address of the current owner."
      },
      "renounceOwnership()": {
        "details": "Leaves the contract without owner. It will not be possible to call `onlyOwner` functions anymore. Can only be called by the current owner. NOTE: Renouncing ownership will leave the contract without an owner, thereby removing any functionality that is only available to the owner."
      },
      "supplyToPool(uint256)": {
        "details": "Lets contract owner deposit _amount to aave pool Requirements: - '_amount\" has to be smaller or equal to tha amount of ERC20 the contract has"
      },
      "transferOwnership(address)": {
        "details": "Transfers ownership of the contract to a new account (`newOwner`). Can only be called by the current owner."
      },
      "withdrawFromPool(uint256)": {
        "details": "Lets contract owner withdraw '_amount' from pool Requirements: - '_amount' has to be lees or equal to the amount previously  deposited. "
      }
    },
    "version": 1
  },
  "opcodes": "PUSH1 0x80 PUSH1 0x40 MSTORE PUSH1 0x4 CALLDATASIZE LT PUSH3 0x15B JUMPI PUSH1 0x0 CALLDATALOAD PUSH1 0xE0 SHR DUP1 PUSH4 0x8B7AFE2E GT PUSH3 0xC5 JUMPI DUP1 PUSH4 0xC42BAEFE GT PUSH3 0x78 JUMPI DUP1 PUSH4 0xC42BAEFE EQ PUSH3 0x3B6 JUMPI DUP1 PUSH4 0xC4C6C237 EQ PUSH3 0x3D8 JUMPI DUP1 PUSH4 0xC9E2F97B EQ PUSH3 0x3FA JUMPI DUP1 PUSH4 0xDB74F18F EQ PUSH3 0x412 JUMPI DUP1 PUSH4 0xE55186A1 EQ PUSH3 0x443 JUMPI DUP1 PUSH4 0xF2FDE38B EQ PUSH3 0x467 JUMPI PUSH1 0x0 DUP1 REVERT JUMPDEST DUP1 PUSH4 0x8B7AFE2E EQ PUSH3 0x2F3 JUMPI DUP1 PUSH4 0x8DA5CB5B EQ PUSH3 0x30B JUMPI DUP1 PUSH4 0x98D0527D EQ PUSH3 0x33F JUMPI DUP1 PUSH4 0xA03E4BC3 EQ PUSH3 0x357 JUMPI DUP1 PUSH4 0xB531251A EQ PUSH3 0x379 JUMPI DUP1 PUSH4 0xC4142927 EQ PUSH3 0x391 JUMPI PUSH1 0x0 DUP1 REVERT JUMPDEST DUP1 PUSH4 0x4ADC4AE7 GT PUSH3 0x11E JUMPI DUP1 PUSH4 0x4ADC4AE7 EQ PUSH3 0x23B JUMPI DUP1 PUSH4 0x513F7D4D EQ PUSH3 0x260 JUMPI DUP1 PUSH4 0x715018A6 EQ PUSH3 0x287 JUMPI DUP1 PUSH4 0x71EACBBB EQ PUSH3 0x29F JUMPI DUP1 PUSH4 0x7746EBC8 EQ PUSH3 0x2B6 JUMPI DUP1 PUSH4 0x824A4617 EQ PUSH3 0x2DB JUMPI PUSH1 0x0 DUP1 REVERT JUMPDEST DUP1 PUSH4 0x12065FE0 EQ PUSH3 0x160 JUMPI DUP1 PUSH4 0x150B7A02 EQ PUSH3 0x183 JUMPI DUP1 PUSH4 0x30FC43ED EQ PUSH3 0x1CC JUMPI DUP1 PUSH4 0x389A46F7 EQ PUSH3 0x1F3 JUMPI DUP1 PUSH4 0x4A4643F7 EQ PUSH3 0x20A JUMPI JUMPDEST PUSH1 0x0 DUP1 REVERT JUMPDEST CALLVALUE DUP1 ISZERO PUSH3 0x16D JUMPI PUSH1 0x0 DUP1 REVERT JUMPDEST POP SELFBALANCE JUMPDEST PUSH1 0x40 MLOAD SWAP1 DUP2 MSTORE PUSH1 0x20 ADD JUMPDEST PUSH1 0x40 MLOAD DUP1 SWAP2 SUB SWAP1 RETURN JUMPDEST CALLVALUE DUP1 ISZERO PUSH3 0x190 JUMPI PUSH1 0x0 DUP1 REVERT JUMPDEST POP PUSH3 0x1B2 PUSH3 0x1A2 CALLDATASIZE PUSH1 0x4 PUSH3 0xEF4 JUMP JUMPDEST PUSH4 0xA85BD01 PUSH1 0xE1 SHL SWAP5 SWAP4 POP POP POP POP JUMP JUMPDEST PUSH1 0x40 MLOAD PUSH1 0x1 PUSH1 0x1 PUSH1 0xE0 SHL SUB NOT SWAP1 SWAP2 AND DUP2 MSTORE PUSH1 0x20 ADD PUSH3 0x17A JUMP JUMPDEST CALLVALUE DUP1 ISZERO PUSH3 0x1D9 JUMPI PUSH1 0x0 DUP1 REVERT JUMPDEST POP PUSH3 0x1F1 PUSH3 0x1EB CALLDATASIZE PUSH1 0x4 PUSH3 0xF79 JUMP JUMPDEST PUSH3 0x48C JUMP JUMPDEST STOP JUMPDEST PUSH3 0x1F1 PUSH3 0x204 CALLDATASIZE PUSH1 0x4 PUSH3 0xFBD JUMP JUMPDEST PUSH3 0x6CA JUMP JUMPDEST CALLVALUE DUP1 ISZERO PUSH3 0x217 JUMPI PUSH1 0x0 DUP1 REVERT JUMPDEST POP PUSH3 0x170 PUSH3 0x229 CALLDATASIZE PUSH1 0x4 PUSH3 0x1022 JUMP JUMPDEST PUSH1 0x19 PUSH1 0x20 MSTORE PUSH1 0x0 SWAP1 DUP2 MSTORE PUSH1 0x40 SWAP1 KECCAK256 SLOAD DUP2 JUMP JUMPDEST CALLVALUE DUP1 ISZERO PUSH3 0x248 JUMPI PUSH1 0x0 DUP1 REVERT JUMPDEST POP PUSH3 0x1F1 PUSH3 0x25A CALLDATASIZE PUSH1 0x4 PUSH3 0x1040 JUMP JUMPDEST PUSH3 0x70F JUMP JUMPDEST CALLVALUE DUP1 ISZERO PUSH3 0x26D JUMPI PUSH1 0x0 DUP1 REVERT JUMPDEST POP PUSH3 0x278 PUSH3 0x851 JUMP JUMPDEST PUSH1 0x40 MLOAD PUSH3 0x17A SWAP2 SWAP1 PUSH3 0x1073 JUMP JUMPDEST CALLVALUE DUP1 ISZERO PUSH3 0x294 JUMPI PUSH1 0x0 DUP1 REVERT JUMPDEST POP PUSH3 0x1F1 PUSH3 0x8E7 JUMP JUMPDEST PUSH3 0x1F1 PUSH3 0x2B0 CALLDATASIZE PUSH1 0x4 PUSH3 0x10CB JUMP JUMPDEST PUSH3 0x922 JUMP JUMPDEST CALLVALUE DUP1 ISZERO PUSH3 0x2C3 JUMPI PUSH1 0x0 DUP1 REVERT JUMPDEST POP PUSH3 0x1F1 PUSH3 0x2D5 CALLDATASIZE PUSH1 0x4 PUSH3 0xF79 JUMP JUMPDEST PUSH3 0x94E JUMP JUMPDEST CALLVALUE DUP1 ISZERO PUSH3 0x2E8 JUMPI PUSH1 0x0 DUP1 REVERT JUMPDEST POP PUSH3 0x278 PUSH3 0xAD7 JUMP JUMPDEST CALLVALUE DUP1 ISZERO PUSH3 0x300 JUMPI PUSH1 0x0 DUP1 REVERT JUMPDEST POP PUSH3 0x170 PUSH1 0x18 SLOAD DUP2 JUMP JUMPDEST CALLVALUE DUP1 ISZERO PUSH3 0x318 JUMPI PUSH1 0x0 DUP1 REVERT JUMPDEST POP PUSH1 0x0 SLOAD PUSH1 0x1 PUSH1 0x1 PUSH1 0xA0 SHL SUB AND JUMPDEST PUSH1 0x40 MLOAD PUSH1 0x1 PUSH1 0x1 PUSH1 0xA0 SHL SUB SWAP1 SWAP2 AND DUP2 MSTORE PUSH1 0x20 ADD PUSH3 0x17A JUMP JUMPDEST CALLVALUE DUP1 ISZERO PUSH3 0x34C JUMPI PUSH1 0x0 DUP1 REVERT JUMPDEST POP PUSH3 0x1F1 PUSH3 0xAE6 JUMP JUMPDEST CALLVALUE DUP1 ISZERO PUSH3 0x364 JUMPI PUSH1 0x0 DUP1 REVERT JUMPDEST POP PUSH1 0x17 SLOAD PUSH3 0x326 SWAP1 PUSH1 0x1 PUSH1 0x1 PUSH1 0xA0 SHL SUB AND DUP2 JUMP JUMPDEST CALLVALUE DUP1 ISZERO PUSH3 0x386 JUMPI PUSH1 0x0 DUP1 REVERT JUMPDEST POP PUSH3 0x278 PUSH3 0xB61 JUMP JUMPDEST CALLVALUE DUP1 ISZERO PUSH3 0x39E JUMPI PUSH1 0x0 DUP1 REVERT JUMPDEST POP PUSH3 0x1F1 PUSH3 0x3B0 CALLDATASIZE PUSH1 0x4 PUSH3 0x1040 JUMP JUMPDEST PUSH3 0xB70 JUMP JUMPDEST CALLVALUE DUP1 ISZERO PUSH3 0x3C3 JUMPI PUSH1 0x0 DUP1 REVERT JUMPDEST POP PUSH1 0x16 SLOAD PUSH3 0x326 SWAP1 PUSH1 0x1 PUSH1 0x1 PUSH1 0xA0 SHL SUB AND DUP2 JUMP JUMPDEST CALLVALUE DUP1 ISZERO PUSH3 0x3E5 JUMPI PUSH1 0x0 DUP1 REVERT JUMPDEST POP PUSH1 0x15 SLOAD PUSH3 0x326 SWAP1 PUSH1 0x1 PUSH1 0x1 PUSH1 0xA0 SHL SUB AND DUP2 JUMP JUMPDEST CALLVALUE DUP1 ISZERO PUSH3 0x407 JUMPI PUSH1 0x0 DUP1 REVERT JUMPDEST POP PUSH3 0x278 PUSH3 0xD35 JUMP JUMPDEST CALLVALUE DUP1 ISZERO PUSH3 0x41F JUMPI PUSH1 0x0 DUP1 REVERT JUMPDEST POP PUSH3 0x170 PUSH3 0x431 CALLDATASIZE PUSH1 0x4 PUSH3 0x1022 JUMP JUMPDEST PUSH1 0x1 PUSH1 0x20 MSTORE PUSH1 0x0 SWAP1 DUP2 MSTORE PUSH1 0x40 SWAP1 KECCAK256 SLOAD DUP2 JUMP JUMPDEST CALLVALUE DUP1 ISZERO PUSH3 0x450 JUMPI PUSH1 0x0 DUP1 REVERT JUMPDEST POP CALLER PUSH1 0x0 SWAP1 DUP2 MSTORE PUSH1 0x1 PUSH1 0x20 MSTORE PUSH1 0x40 SWAP1 KECCAK256 SLOAD PUSH3 0x170 JUMP JUMPDEST CALLVALUE DUP1 ISZERO PUSH3 0x474 JUMPI PUSH1 0x0 DUP1 REVERT JUMPDEST POP PUSH3 0x1F1 PUSH3 0x486 CALLDATASIZE PUSH1 0x4 PUSH3 0x1022 JUMP JUMPDEST PUSH3 0xD44 JUMP JUMPDEST PUSH1 0x0 SLOAD PUSH1 0x1 PUSH1 0x1 PUSH1 0xA0 SHL SUB AND CALLER EQ PUSH3 0x4C2 JUMPI PUSH1 0x40 MLOAD PUSH3 0x461BCD PUSH1 0xE5 SHL DUP2 MSTORE PUSH1 0x4 ADD PUSH3 0x4B9 SWAP1 PUSH3 0x1128 JUMP JUMPDEST PUSH1 0x40 MLOAD DUP1 SWAP2 SUB SWAP1 REVERT JUMPDEST PUSH1 0x16 SLOAD PUSH1 0x40 MLOAD PUSH4 0x70A08231 PUSH1 0xE0 SHL DUP2 MSTORE ADDRESS PUSH1 0x4 DUP3 ADD MSTORE PUSH1 0x1 PUSH1 0x1 PUSH1 0xA0 SHL SUB SWAP1 SWAP2 AND SWAP1 PUSH4 0x70A08231 SWAP1 PUSH1 0x24 ADD PUSH1 0x20 PUSH1 0x40 MLOAD DUP1 DUP4 SUB DUP2 DUP7 GAS STATICCALL ISZERO DUP1 ISZERO PUSH3 0x50B JUMPI RETURNDATASIZE PUSH1 0x0 DUP1 RETURNDATACOPY RETURNDATASIZE PUSH1 0x0 REVERT JUMPDEST POP POP POP POP PUSH1 0x40 MLOAD RETURNDATASIZE PUSH1 0x1F NOT PUSH1 0x1F DUP3 ADD AND DUP3 ADD DUP1 PUSH1 0x40 MSTORE POP DUP2 ADD SWAP1 PUSH3 0x531 SWAP2 SWAP1 PUSH3 0x115D JUMP JUMPDEST DUP2 GT ISZERO PUSH3 0x579 JUMPI PUSH1 0x40 MLOAD PUSH3 0x461BCD PUSH1 0xE5 SHL DUP2 MSTORE PUSH1 0x20 PUSH1 0x4 DUP3 ADD MSTORE PUSH1 0x14 PUSH1 0x24 DUP3 ADD MSTORE PUSH20 0x496E73756666696369656E742061546F6B656E73 PUSH1 0x60 SHL PUSH1 0x44 DUP3 ADD MSTORE PUSH1 0x64 ADD PUSH3 0x4B9 JUMP JUMPDEST PUSH1 0x17 SLOAD PUSH1 0x15 SLOAD PUSH1 0x40 MLOAD PUSH4 0x1A4CA37B PUSH1 0xE2 SHL DUP2 MSTORE PUSH1 0x1 PUSH1 0x1 PUSH1 0xA0 SHL SUB SWAP2 DUP3 AND PUSH1 0x4 DUP3 ADD MSTORE PUSH1 0x24 DUP2 ADD DUP5 SWAP1 MSTORE ADDRESS PUSH1 0x44 DUP3 ADD MSTORE SWAP2 AND SWAP1 PUSH4 0x69328DEC SWAP1 PUSH1 0x64 ADD PUSH1 0x20 PUSH1 0x40 MLOAD DUP1 DUP4 SUB DUP2 PUSH1 0x0 DUP8 GAS CALL ISZERO DUP1 ISZERO PUSH3 0x5D5 JUMPI RETURNDATASIZE PUSH1 0x0 DUP1 RETURNDATACOPY RETURNDATASIZE PUSH1 0x0 REVERT JUMPDEST POP POP POP POP PUSH1 0x40 MLOAD RETURNDATASIZE PUSH1 0x1F NOT PUSH1 0x1F DUP3 ADD AND DUP3 ADD DUP1 PUSH1 0x40 MSTORE POP DUP2 ADD SWAP1 PUSH3 0x5FB SWAP2 SWAP1 PUSH3 0x115D JUMP JUMPDEST POP PUSH1 0x15 SLOAD PUSH1 0x7 SLOAD PUSH1 0x1 PUSH1 0x1 PUSH1 0xA0 SHL SUB SWAP2 DUP3 AND SWAP2 PUSH4 0xA9059CBB SWAP2 AND PUSH3 0x622 PUSH1 0x64 DUP6 PUSH3 0x118D JUMP JUMPDEST PUSH1 0x40 MLOAD PUSH1 0x1 PUSH1 0x1 PUSH1 0xE0 SHL SUB NOT PUSH1 0xE0 DUP6 SWAP1 SHL AND DUP2 MSTORE PUSH1 0x1 PUSH1 0x1 PUSH1 0xA0 SHL SUB SWAP1 SWAP3 AND PUSH1 0x4 DUP4 ADD MSTORE PUSH1 0x24 DUP3 ADD MSTORE PUSH1 0x44 ADD PUSH1 0x20 PUSH1 0x40 MLOAD DUP1 DUP4 SUB DUP2 PUSH1 0x0 DUP8 GAS CALL ISZERO DUP1 ISZERO PUSH3 0x66E JUMPI RETURNDATASIZE PUSH1 0x0 DUP1 RETURNDATACOPY RETURNDATASIZE PUSH1 0x0 REVERT JUMPDEST POP POP POP POP PUSH1 0x40 MLOAD RETURNDATASIZE PUSH1 0x1F NOT PUSH1 0x1F DUP3 ADD AND DUP3 ADD DUP1 PUSH1 0x40 MSTORE POP DUP2 ADD SWAP1 PUSH3 0x694 SWAP2 SWAP1 PUSH3 0x11B0 JUMP JUMPDEST POP PUSH3 0x6A2 PUSH1 0x64 DUP3 PUSH3 0x118D JUMP JUMPDEST PUSH3 0x6AF SWAP1 PUSH1 0x63 PUSH3 0x11D4 JUMP JUMPDEST PUSH1 0x18 PUSH1 0x0 DUP3 DUP3 SLOAD PUSH3 0x6C2 SWAP2 SWAP1 PUSH3 0x11F6 JUMP JUMPDEST SWAP1 SWAP2 SSTORE POP POP POP JUMP JUMPDEST PUSH1 0x11 DUP1 SLOAD PUSH1 0x0 SWAP1 DUP2 MSTORE PUSH1 0x2 PUSH1 0x20 MSTORE PUSH1 0x40 DUP2 KECCAK256 DUP1 SLOAD PUSH1 0x1 PUSH1 0x1 PUSH1 0xA0 SHL SUB NOT AND PUSH1 0x1 PUSH1 0x1 PUSH1 0xA0 SHL SUB DUP7 AND OR SWAP1 SSTORE DUP2 SLOAD SWAP2 SWAP1 PUSH3 0x704 DUP4 PUSH3 0x1211 JUMP JUMPDEST SWAP2 SWAP1 POP SSTORE POP POP POP POP POP JUMP JUMPDEST PUSH1 0x0 SLOAD PUSH1 0x1 PUSH1 0x1 PUSH1 0xA0 SHL SUB AND CALLER EQ PUSH3 0x73C JUMPI PUSH1 0x40 MLOAD PUSH3 0x461BCD PUSH1 0xE5 SHL DUP2 MSTORE PUSH1 0x4 ADD PUSH3 0x4B9 SWAP1 PUSH3 0x1128 JUMP JUMPDEST DUP3 SELFBALANCE GT PUSH3 0x782 JUMPI PUSH1 0x40 MLOAD PUSH3 0x461BCD PUSH1 0xE5 SHL DUP2 MSTORE PUSH1 0x20 PUSH1 0x4 DUP3 ADD MSTORE PUSH1 0x12 PUSH1 0x24 DUP3 ADD MSTORE PUSH18 0x4E6F7420656E6F756768206D6F6E65792121 PUSH1 0x70 SHL PUSH1 0x44 DUP3 ADD MSTORE PUSH1 0x64 ADD PUSH3 0x4B9 JUMP JUMPDEST PUSH1 0x0 DUP5 DUP2 MSTORE PUSH1 0x2 PUSH1 0x20 MSTORE PUSH1 0x40 DUP1 DUP3 KECCAK256 SLOAD SWAP1 MLOAD PUSH1 0x1 PUSH1 0x1 PUSH1 0xA0 SHL SUB SWAP1 SWAP2 AND SWAP2 SWAP1 DUP2 SWAP1 DUP4 SWAP1 DUP8 SWAP1 DUP4 DUP2 DUP2 DUP2 DUP6 DUP8 GAS CALL SWAP3 POP POP POP RETURNDATASIZE DUP1 PUSH1 0x0 DUP2 EQ PUSH3 0x7E1 JUMPI PUSH1 0x40 MLOAD SWAP2 POP PUSH1 0x1F NOT PUSH1 0x3F RETURNDATASIZE ADD AND DUP3 ADD PUSH1 0x40 MSTORE RETURNDATASIZE DUP3 MSTORE RETURNDATASIZE PUSH1 0x0 PUSH1 0x20 DUP5 ADD RETURNDATACOPY PUSH3 0x7E6 JUMP JUMPDEST PUSH1 0x60 SWAP2 POP JUMPDEST POP SWAP2 POP SWAP2 POP DUP2 PUSH3 0x831 JUMPI PUSH1 0x40 MLOAD PUSH3 0x461BCD PUSH1 0xE5 SHL DUP2 MSTORE PUSH1 0x20 PUSH1 0x4 DUP3 ADD MSTORE PUSH1 0x14 PUSH1 0x24 DUP3 ADD MSTORE PUSH20 0x6E6F732066616C6C6F2065737461206D61647265 PUSH1 0x60 SHL PUSH1 0x44 DUP3 ADD MSTORE PUSH1 0x64 ADD PUSH3 0x4B9 JUMP JUMPDEST PUSH1 0x14 DUP1 SLOAD SWAP1 PUSH1 0x0 PUSH3 0x843 DUP4 PUSH3 0x1211 JUMP JUMPDEST SWAP2 SWAP1 POP SSTORE POP POP POP POP POP POP POP POP JUMP JUMPDEST PUSH1 0x12 DUP1 SLOAD PUSH3 0x860 SWAP1 PUSH3 0x122F JUMP JUMPDEST DUP1 PUSH1 0x1F ADD PUSH1 0x20 DUP1 SWAP2 DIV MUL PUSH1 0x20 ADD PUSH1 0x40 MLOAD SWAP1 DUP2 ADD PUSH1 0x40 MSTORE DUP1 SWAP3 SWAP2 SWAP1 DUP2 DUP2 MSTORE PUSH1 0x20 ADD DUP3 DUP1 SLOAD PUSH3 0x88E SWAP1 PUSH3 0x122F JUMP JUMPDEST DUP1 ISZERO PUSH3 0x8DF JUMPI DUP1 PUSH1 0x1F LT PUSH3 0x8B3 JUMPI PUSH2 0x100 DUP1 DUP4 SLOAD DIV MUL DUP4 MSTORE SWAP2 PUSH1 0x20 ADD SWAP2 PUSH3 0x8DF JUMP JUMPDEST DUP3 ADD SWAP2 SWAP1 PUSH1 0x0 MSTORE PUSH1 0x20 PUSH1 0x0 KECCAK256 SWAP1 JUMPDEST DUP2 SLOAD DUP2 MSTORE SWAP1 PUSH1 0x1 ADD SWAP1 PUSH1 0x20 ADD DUP1 DUP4 GT PUSH3 0x8C1 JUMPI DUP3 SWAP1 SUB PUSH1 0x1F AND DUP3 ADD SWAP2 JUMPDEST POP POP POP POP POP DUP2 JUMP JUMPDEST PUSH1 0x0 SLOAD PUSH1 0x1 PUSH1 0x1 PUSH1 0xA0 SHL SUB AND CALLER EQ PUSH3 0x914 JUMPI PUSH1 0x40 MLOAD PUSH3 0x461BCD PUSH1 0xE5 SHL DUP2 MSTORE PUSH1 0x4 ADD PUSH3 0x4B9 SWAP1 PUSH3 0x1128 JUMP JUMPDEST PUSH3 0x920 PUSH1 0x0 PUSH3 0xDE6 JUMP JUMPDEST JUMP JUMPDEST CALLER PUSH1 0x0 SWAP1 DUP2 MSTORE PUSH1 0x1 PUSH1 0x20 MSTORE PUSH1 0x40 DUP2 KECCAK256 DUP5 SWAP1 SSTORE PUSH1 0xB DUP1 SLOAD SWAP2 PUSH3 0x944 DUP4 PUSH3 0x1211 JUMP JUMPDEST SWAP2 SWAP1 POP SSTORE POP POP POP POP JUMP JUMPDEST PUSH1 0x0 SLOAD PUSH1 0x1 PUSH1 0x1 PUSH1 0xA0 SHL SUB AND CALLER EQ PUSH3 0x97B JUMPI PUSH1 0x40 MLOAD PUSH3 0x461BCD PUSH1 0xE5 SHL DUP2 MSTORE PUSH1 0x4 ADD PUSH3 0x4B9 SWAP1 PUSH3 0x1128 JUMP JUMPDEST PUSH1 0x18 SLOAD DUP2 GT ISZERO PUSH3 0x9CF JUMPI PUSH1 0x40 MLOAD PUSH3 0x461BCD PUSH1 0xE5 SHL DUP2 MSTORE PUSH1 0x20 PUSH1 0x4 DUP3 ADD MSTORE PUSH1 0x1E PUSH1 0x24 DUP3 ADD MSTORE PUSH32 0x496E73756666696369656E742066756E647320696E20636F6E74726163740000 PUSH1 0x44 DUP3 ADD MSTORE PUSH1 0x64 ADD PUSH3 0x4B9 JUMP JUMPDEST PUSH1 0x15 SLOAD PUSH1 0x17 SLOAD PUSH1 0x40 MLOAD PUSH4 0x95EA7B3 PUSH1 0xE0 SHL DUP2 MSTORE PUSH1 0x1 PUSH1 0x1 PUSH1 0xA0 SHL SUB SWAP2 DUP3 AND PUSH1 0x4 DUP3 ADD MSTORE PUSH1 0x24 DUP2 ADD DUP5 SWAP1 MSTORE SWAP2 AND SWAP1 PUSH4 0x95EA7B3 SWAP1 PUSH1 0x44 ADD PUSH1 0x20 PUSH1 0x40 MLOAD DUP1 DUP4 SUB DUP2 PUSH1 0x0 DUP8 GAS CALL ISZERO DUP1 ISZERO PUSH3 0xA25 JUMPI RETURNDATASIZE PUSH1 0x0 DUP1 RETURNDATACOPY RETURNDATASIZE PUSH1 0x0 REVERT JUMPDEST POP POP POP POP PUSH1 0x40 MLOAD RETURNDATASIZE PUSH1 0x1F NOT PUSH1 0x1F DUP3 ADD AND DUP3 ADD DUP1 PUSH1 0x40 MSTORE POP DUP2 ADD SWAP1 PUSH3 0xA4B SWAP2 SWAP1 PUSH3 0x11B0 JUMP JUMPDEST POP PUSH1 0x17 SLOAD PUSH1 0x15 SLOAD PUSH1 0x40 MLOAD PUSH4 0x617BA037 PUSH1 0xE0 SHL DUP2 MSTORE PUSH1 0x1 PUSH1 0x1 PUSH1 0xA0 SHL SUB SWAP2 DUP3 AND PUSH1 0x4 DUP3 ADD MSTORE PUSH1 0x24 DUP2 ADD DUP5 SWAP1 MSTORE ADDRESS PUSH1 0x44 DUP3 ADD MSTORE PUSH1 0x0 PUSH1 0x64 DUP3 ADD MSTORE SWAP2 AND SWAP1 PUSH4 0x617BA037 SWAP1 PUSH1 0x84 ADD PUSH1 0x0 PUSH1 0x40 MLOAD DUP1 DUP4 SUB DUP2 PUSH1 0x0 DUP8 DUP1 EXTCODESIZE ISZERO DUP1 ISZERO PUSH3 0xAAA JUMPI PUSH1 0x0 DUP1 REVERT JUMPDEST POP GAS CALL ISZERO DUP1 ISZERO PUSH3 0xABF JUMPI RETURNDATASIZE PUSH1 0x0 DUP1 RETURNDATACOPY RETURNDATASIZE PUSH1 0x0 REVERT JUMPDEST POP POP POP POP DUP1 PUSH1 0x18 PUSH1 0x0 DUP3 DUP3 SLOAD PUSH3 0x6C2 SWAP2 SWAP1 PUSH3 0x126C JUMP JUMPDEST PUSH1 0xC DUP1 SLOAD PUSH3 0x860 SWAP1 PUSH3 0x122F JUMP JUMPDEST PUSH1 0x0 SLOAD PUSH1 0x1 PUSH1 0x1 PUSH1 0xA0 SHL SUB AND CALLER EQ PUSH3 0xB13 JUMPI PUSH1 0x40 MLOAD PUSH3 0x461BCD PUSH1 0xE5 SHL DUP2 MSTORE PUSH1 0x4 ADD PUSH3 0x4B9 SWAP1 PUSH3 0x1128 JUMP JUMPDEST PUSH1 0x40 MLOAD PUSH3 0xB21 SWAP1 PUSH3 0xE36 JUMP JUMPDEST PUSH1 0x40 MLOAD DUP1 SWAP2 SUB SWAP1 PUSH1 0x0 CREATE DUP1 ISZERO DUP1 ISZERO PUSH3 0xB3E JUMPI RETURNDATASIZE PUSH1 0x0 DUP1 RETURNDATACOPY RETURNDATASIZE PUSH1 0x0 REVERT JUMPDEST POP PUSH1 0x8 DUP1 SLOAD PUSH1 0x1 PUSH1 0x1 PUSH1 0xA0 SHL SUB NOT AND PUSH1 0x1 PUSH1 0x1 PUSH1 0xA0 SHL SUB SWAP3 SWAP1 SWAP3 AND SWAP2 SWAP1 SWAP2 OR SWAP1 SSTORE JUMP JUMPDEST PUSH1 0x9 DUP1 SLOAD PUSH3 0x860 SWAP1 PUSH3 0x122F JUMP JUMPDEST PUSH1 0x15 SLOAD PUSH1 0x40 MLOAD PUSH4 0x6EB1769F PUSH1 0xE1 SHL DUP2 MSTORE CALLER PUSH1 0x4 DUP3 ADD MSTORE ADDRESS PUSH1 0x24 DUP3 ADD MSTORE DUP6 SWAP2 PUSH1 0x1 PUSH1 0x1 PUSH1 0xA0 SHL SUB AND SWAP1 PUSH4 0xDD62ED3E SWAP1 PUSH1 0x44 ADD PUSH1 0x20 PUSH1 0x40 MLOAD DUP1 DUP4 SUB DUP2 DUP7 GAS STATICCALL ISZERO DUP1 ISZERO PUSH3 0xBBF JUMPI RETURNDATASIZE PUSH1 0x0 DUP1 RETURNDATACOPY RETURNDATASIZE PUSH1 0x0 REVERT JUMPDEST POP POP POP POP PUSH1 0x40 MLOAD RETURNDATASIZE PUSH1 0x1F NOT PUSH1 0x1F DUP3 ADD AND DUP3 ADD DUP1 PUSH1 0x40 MSTORE POP DUP2 ADD SWAP1 PUSH3 0xBE5 SWAP2 SWAP1 PUSH3 0x115D JUMP JUMPDEST LT ISZERO PUSH3 0xC26 JUMPI PUSH1 0x40 MLOAD PUSH3 0x461BCD PUSH1 0xE5 SHL DUP2 MSTORE PUSH1 0x20 PUSH1 0x4 DUP3 ADD MSTORE PUSH1 0xE PUSH1 0x24 DUP3 ADD MSTORE PUSH14 0x1B9959591CC8185C1C1C9BDD985B PUSH1 0x92 SHL PUSH1 0x44 DUP3 ADD MSTORE PUSH1 0x64 ADD PUSH3 0x4B9 JUMP JUMPDEST PUSH1 0x15 SLOAD PUSH1 0x40 MLOAD PUSH4 0x23B872DD PUSH1 0xE0 SHL DUP2 MSTORE CALLER PUSH1 0x4 DUP3 ADD MSTORE ADDRESS PUSH1 0x24 DUP3 ADD MSTORE PUSH1 0x44 DUP2 ADD DUP7 SWAP1 MSTORE PUSH1 0x1 PUSH1 0x1 PUSH1 0xA0 SHL SUB SWAP1 SWAP2 AND SWAP1 PUSH4 0x23B872DD SWAP1 PUSH1 0x64 ADD PUSH1 0x20 PUSH1 0x40 MLOAD DUP1 DUP4 SUB DUP2 PUSH1 0x0 DUP8 GAS CALL ISZERO DUP1 ISZERO PUSH3 0xC7E JUMPI RETURNDATASIZE PUSH1 0x0 DUP1 RETURNDATACOPY RETURNDATASIZE PUSH1 0x0 REVERT JUMPDEST POP POP POP POP PUSH1 0x40 MLOAD RETURNDATASIZE PUSH1 0x1F NOT PUSH1 0x1F DUP3 ADD AND DUP3 ADD DUP1 PUSH1 0x40 MSTORE POP DUP2 ADD SWAP1 PUSH3 0xCA4 SWAP2 SWAP1 PUSH3 0x11B0 JUMP JUMPDEST POP CALLER PUSH1 0x0 SWAP1 DUP2 MSTORE PUSH1 0x19 PUSH1 0x20 MSTORE PUSH1 0x40 DUP2 KECCAK256 DUP6 SWAP1 SSTORE PUSH1 0x18 DUP1 SLOAD DUP7 SWAP3 SWAP1 PUSH3 0xCCB SWAP1 DUP5 SWAP1 PUSH3 0x11F6 JUMP JUMPDEST SWAP1 SWAP2 SSTORE POP POP PUSH1 0x8 SLOAD PUSH1 0x40 MLOAD PUSH4 0x7B085D73 PUSH1 0xE1 SHL DUP2 MSTORE CALLER PUSH1 0x4 DUP3 ADD MSTORE PUSH1 0x1 PUSH1 0x1 PUSH1 0xA0 SHL SUB SWAP1 SWAP2 AND SWAP1 PUSH4 0xF610BAE6 SWAP1 PUSH1 0x24 ADD PUSH1 0x0 PUSH1 0x40 MLOAD DUP1 DUP4 SUB DUP2 PUSH1 0x0 DUP8 DUP1 EXTCODESIZE ISZERO DUP1 ISZERO PUSH3 0xD16 JUMPI PUSH1 0x0 DUP1 REVERT JUMPDEST POP GAS CALL ISZERO DUP1 ISZERO PUSH3 0xD2B JUMPI RETURNDATASIZE PUSH1 0x0 DUP1 RETURNDATACOPY RETURNDATASIZE PUSH1 0x0 REVERT JUMPDEST POP POP POP POP POP POP POP POP JUMP JUMPDEST PUSH1 0xF DUP1 SLOAD PUSH3 0x860 SWAP1 PUSH3 0x122F JUMP JUMPDEST PUSH1 0x0 SLOAD PUSH1 0x1 PUSH1 0x1 PUSH1 0xA0 SHL SUB AND CALLER EQ PUSH3 0xD71 JUMPI PUSH1 0x40 MLOAD PUSH3 0x461BCD PUSH1 0xE5 SHL DUP2 MSTORE PUSH1 0x4 ADD PUSH3 0x4B9 SWAP1 PUSH3 0x1128 JUMP JUMPDEST PUSH1 0x1 PUSH1 0x1 PUSH1 0xA0 SHL SUB DUP2 AND PUSH3 0xDD8 JUMPI PUSH1 0x40 MLOAD PUSH3 0x461BCD PUSH1 0xE5 SHL DUP2 MSTORE PUSH1 0x20 PUSH1 0x4 DUP3 ADD MSTORE PUSH1 0x26 PUSH1 0x24 DUP3 ADD MSTORE PUSH32 0x4F776E61626C653A206E6577206F776E657220697320746865207A65726F2061 PUSH1 0x44 DUP3 ADD MSTORE PUSH6 0x646472657373 PUSH1 0xD0 SHL PUSH1 0x64 DUP3 ADD MSTORE PUSH1 0x84 ADD PUSH3 0x4B9 JUMP JUMPDEST PUSH3 0xDE3 DUP2 PUSH3 0xDE6 JUMP JUMPDEST POP JUMP JUMPDEST PUSH1 0x0 DUP1 SLOAD PUSH1 0x1 PUSH1 0x1 PUSH1 0xA0 SHL SUB DUP4 DUP2 AND PUSH1 0x1 PUSH1 0x1 PUSH1 0xA0 SHL SUB NOT DUP4 AND DUP2 OR DUP5 SSTORE PUSH1 0x40 MLOAD SWAP2 SWAP1 SWAP3 AND SWAP3 DUP4 SWAP2 PUSH32 0x8BE0079C531659141344CD1FD0A4F28419497F9722A3DAAFE3B4186F6B6457E0 SWAP2 SWAP1 LOG3 POP POP JUMP JUMPDEST PUSH2 0x1451 DUP1 PUSH3 0x1287 DUP4 CODECOPY ADD SWAP1 JUMP JUMPDEST DUP1 CALLDATALOAD PUSH1 0x1 PUSH1 0x1 PUSH1 0xA0 SHL SUB DUP2 AND DUP2 EQ PUSH3 0xE5C JUMPI PUSH1 0x0 DUP1 REVERT JUMPDEST SWAP2 SWAP1 POP JUMP JUMPDEST PUSH4 0x4E487B71 PUSH1 0xE0 SHL PUSH1 0x0 MSTORE PUSH1 0x41 PUSH1 0x4 MSTORE PUSH1 0x24 PUSH1 0x0 REVERT JUMPDEST PUSH1 0x0 PUSH8 0xFFFFFFFFFFFFFFFF DUP1 DUP5 GT ISZERO PUSH3 0xE95 JUMPI PUSH3 0xE95 PUSH3 0xE61 JUMP JUMPDEST PUSH1 0x40 MLOAD PUSH1 0x1F DUP6 ADD PUSH1 0x1F NOT SWAP1 DUP2 AND PUSH1 0x3F ADD AND DUP2 ADD SWAP1 DUP3 DUP3 GT DUP2 DUP4 LT OR ISZERO PUSH3 0xEC0 JUMPI PUSH3 0xEC0 PUSH3 0xE61 JUMP JUMPDEST DUP2 PUSH1 0x40 MSTORE DUP1 SWAP4 POP DUP6 DUP2 MSTORE DUP7 DUP7 DUP7 ADD GT ISZERO PUSH3 0xEDA JUMPI PUSH1 0x0 DUP1 REVERT JUMPDEST DUP6 DUP6 PUSH1 0x20 DUP4 ADD CALLDATACOPY PUSH1 0x0 PUSH1 0x20 DUP8 DUP4 ADD ADD MSTORE POP POP POP SWAP4 SWAP3 POP POP POP JUMP JUMPDEST PUSH1 0x0 DUP1 PUSH1 0x0 DUP1 PUSH1 0x80 DUP6 DUP8 SUB SLT ISZERO PUSH3 0xF0B JUMPI PUSH1 0x0 DUP1 REVERT JUMPDEST PUSH3 0xF16 DUP6 PUSH3 0xE44 JUMP JUMPDEST SWAP4 POP PUSH3 0xF26 PUSH1 0x20 DUP7 ADD PUSH3 0xE44 JUMP JUMPDEST SWAP3 POP PUSH1 0x40 DUP6 ADD CALLDATALOAD SWAP2 POP PUSH1 0x60 DUP6 ADD CALLDATALOAD PUSH8 0xFFFFFFFFFFFFFFFF DUP2 GT ISZERO PUSH3 0xF4A JUMPI PUSH1 0x0 DUP1 REVERT JUMPDEST DUP6 ADD PUSH1 0x1F DUP2 ADD DUP8 SGT PUSH3 0xF5C JUMPI PUSH1 0x0 DUP1 REVERT JUMPDEST PUSH3 0xF6D DUP8 DUP3 CALLDATALOAD PUSH1 0x20 DUP5 ADD PUSH3 0xE77 JUMP JUMPDEST SWAP2 POP POP SWAP3 SWAP6 SWAP2 SWAP5 POP SWAP3 POP JUMP JUMPDEST PUSH1 0x0 PUSH1 0x20 DUP3 DUP5 SUB SLT ISZERO PUSH3 0xF8C JUMPI PUSH1 0x0 DUP1 REVERT JUMPDEST POP CALLDATALOAD SWAP2 SWAP1 POP JUMP JUMPDEST PUSH1 0x0 DUP3 PUSH1 0x1F DUP4 ADD SLT PUSH3 0xFA5 JUMPI PUSH1 0x0 DUP1 REVERT JUMPDEST PUSH3 0xFB6 DUP4 DUP4 CALLDATALOAD PUSH1 0x20 DUP6 ADD PUSH3 0xE77 JUMP JUMPDEST SWAP4 SWAP3 POP POP POP JUMP JUMPDEST PUSH1 0x0 DUP1 PUSH1 0x0 DUP1 PUSH1 0x80 DUP6 DUP8 SUB SLT ISZERO PUSH3 0xFD4 JUMPI PUSH1 0x0 DUP1 REVERT JUMPDEST DUP5 CALLDATALOAD PUSH8 0xFFFFFFFFFFFFFFFF DUP2 GT ISZERO PUSH3 0xFEC JUMPI PUSH1 0x0 DUP1 REVERT JUMPDEST PUSH3 0xFFA DUP8 DUP3 DUP9 ADD PUSH3 0xF93 JUMP JUMPDEST SWAP5 POP POP PUSH1 0x20 DUP6 ADD CALLDATALOAD SWAP3 POP PUSH3 0x1012 PUSH1 0x40 DUP7 ADD PUSH3 0xE44 JUMP JUMPDEST SWAP4 SWAP7 SWAP3 SWAP6 POP SWAP3 SWAP4 PUSH1 0x60 ADD CALLDATALOAD SWAP3 POP POP JUMP JUMPDEST PUSH1 0x0 PUSH1 0x20 DUP3 DUP5 SUB SLT ISZERO PUSH3 0x1035 JUMPI PUSH1 0x0 DUP1 REVERT JUMPDEST PUSH3 0xFB6 DUP3 PUSH3 0xE44 JUMP JUMPDEST PUSH1 0x0 DUP1 PUSH1 0x0 DUP1 PUSH1 0x80 DUP6 DUP8 SUB SLT ISZERO PUSH3 0x1057 JUMPI PUSH1 0x0 DUP1 REVERT JUMPDEST POP POP DUP3 CALLDATALOAD SWAP5 PUSH1 0x20 DUP5 ADD CALLDATALOAD SWAP5 POP PUSH1 0x40 DUP5 ADD CALLDATALOAD SWAP4 PUSH1 0x60 ADD CALLDATALOAD SWAP3 POP SWAP1 POP JUMP JUMPDEST PUSH1 0x0 PUSH1 0x20 DUP1 DUP4 MSTORE DUP4 MLOAD DUP1 DUP3 DUP6 ADD MSTORE PUSH1 0x0 JUMPDEST DUP2 DUP2 LT ISZERO PUSH3 0x10A2 JUMPI DUP6 DUP2 ADD DUP4 ADD MLOAD DUP6 DUP3 ADD PUSH1 0x40 ADD MSTORE DUP3 ADD PUSH3 0x1084 JUMP JUMPDEST DUP2 DUP2 GT ISZERO PUSH3 0x10B5 JUMPI PUSH1 0x0 PUSH1 0x40 DUP4 DUP8 ADD ADD MSTORE JUMPDEST POP PUSH1 0x1F ADD PUSH1 0x1F NOT AND SWAP3 SWAP1 SWAP3 ADD PUSH1 0x40 ADD SWAP4 SWAP3 POP POP POP JUMP JUMPDEST PUSH1 0x0 DUP1 PUSH1 0x0 PUSH1 0x60 DUP5 DUP7 SUB SLT ISZERO PUSH3 0x10E1 JUMPI PUSH1 0x0 DUP1 REVERT JUMPDEST DUP4 CALLDATALOAD SWAP3 POP PUSH1 0x20 DUP5 ADD CALLDATALOAD PUSH8 0xFFFFFFFFFFFFFFFF DUP2 GT ISZERO PUSH3 0x1100 JUMPI PUSH1 0x0 DUP1 REVERT JUMPDEST PUSH3 0x110E DUP7 DUP3 DUP8 ADD PUSH3 0xF93 JUMP JUMPDEST SWAP3 POP POP PUSH3 0x111F PUSH1 0x40 DUP6 ADD PUSH3 0xE44 JUMP JUMPDEST SWAP1 POP SWAP3 POP SWAP3 POP SWAP3 JUMP JUMPDEST PUSH1 0x20 DUP1 DUP3 MSTORE DUP2 DUP2 ADD MSTORE PUSH32 0x4F776E61626C653A2063616C6C6572206973206E6F7420746865206F776E6572 PUSH1 0x40 DUP3 ADD MSTORE PUSH1 0x60 ADD SWAP1 JUMP JUMPDEST PUSH1 0x0 PUSH1 0x20 DUP3 DUP5 SUB SLT ISZERO PUSH3 0x1170 JUMPI PUSH1 0x0 DUP1 REVERT JUMPDEST POP MLOAD SWAP2 SWAP1 POP JUMP JUMPDEST PUSH4 0x4E487B71 PUSH1 0xE0 SHL PUSH1 0x0 MSTORE PUSH1 0x11 PUSH1 0x4 MSTORE PUSH1 0x24 PUSH1 0x0 REVERT JUMPDEST PUSH1 0x0 DUP3 PUSH3 0x11AB JUMPI PUSH4 0x4E487B71 PUSH1 0xE0 SHL PUSH1 0x0 MSTORE PUSH1 0x12 PUSH1 0x4 MSTORE PUSH1 0x24 PUSH1 0x0 REVERT JUMPDEST POP DIV SWAP1 JUMP JUMPDEST PUSH1 0x0 PUSH1 0x20 DUP3 DUP5 SUB SLT ISZERO PUSH3 0x11C3 JUMPI PUSH1 0x0 DUP1 REVERT JUMPDEST DUP2 MLOAD DUP1 ISZERO ISZERO DUP2 EQ PUSH3 0xFB6 JUMPI PUSH1 0x0 DUP1 REVERT JUMPDEST PUSH1 0x0 DUP2 PUSH1 0x0 NOT DIV DUP4 GT DUP3 ISZERO ISZERO AND ISZERO PUSH3 0x11F1 JUMPI PUSH3 0x11F1 PUSH3 0x1177 JUMP JUMPDEST POP MUL SWAP1 JUMP JUMPDEST PUSH1 0x0 DUP3 NOT DUP3 GT ISZERO PUSH3 0x120C JUMPI PUSH3 0x120C PUSH3 0x1177 JUMP JUMPDEST POP ADD SWAP1 JUMP JUMPDEST PUSH1 0x0 PUSH1 0x0 NOT DUP3 EQ ISZERO PUSH3 0x1228 JUMPI PUSH3 0x1228 PUSH3 0x1177 JUMP JUMPDEST POP PUSH1 0x1 ADD SWAP1 JUMP JUMPDEST PUSH1 0x1 DUP2 DUP2 SHR SWAP1 DUP3 AND DUP1 PUSH3 0x1244 JUMPI PUSH1 0x7F DUP3 AND SWAP2 POP JUMPDEST PUSH1 0x20 DUP3 LT DUP2 EQ ISZERO PUSH3 0x1266 JUMPI PUSH4 0x4E487B71 PUSH1 0xE0 SHL PUSH1 0x0 MSTORE PUSH1 0x22 PUSH1 0x4 MSTORE PUSH1 0x24 PUSH1 0x0 REVERT JUMPDEST POP SWAP2 SWAP1 POP JUMP JUMPDEST PUSH1 0x0 DUP3 DUP3 LT ISZERO PUSH3 0x1281 JUMPI PUSH3 0x1281 PUSH3 0x1177 JUMP JUMPDEST POP SUB SWAP1 JUMP INVALID PUSH1 0x80 PUSH1 0x40 MSTORE CALLVALUE DUP1 ISZERO PUSH3 0x11 JUMPI PUSH1 0x0 DUP1 REVERT JUMPDEST POP PUSH1 0x40 DUP1 MLOAD DUP1 DUP3 ADD DUP3 MSTORE PUSH1 0xA DUP2 MSTORE PUSH10 0x14185E5B595B9D139195 PUSH1 0xB2 SHL PUSH1 0x20 DUP1 DUP4 ADD SWAP2 DUP3 MSTORE DUP4 MLOAD DUP1 DUP6 ADD SWAP1 SWAP5 MSTORE PUSH1 0x4 DUP5 MSTORE PUSH4 0x14139195 PUSH1 0xE2 SHL SWAP1 DUP5 ADD MSTORE DUP2 MLOAD SWAP2 SWAP3 SWAP2 PUSH3 0x60 SWAP2 PUSH1 0x0 SWAP2 PUSH3 0x96 JUMP JUMPDEST POP DUP1 MLOAD PUSH3 0x76 SWAP1 PUSH1 0x1 SWAP1 PUSH1 0x20 DUP5 ADD SWAP1 PUSH3 0x96 JUMP JUMPDEST POP POP PUSH1 0x0 PUSH1 0x6 SSTORE POP PUSH1 0x7 DUP1 SLOAD PUSH1 0x1 PUSH1 0x1 PUSH1 0xA0 SHL SUB NOT AND CALLER OR SWAP1 SSTORE PUSH3 0x179 JUMP JUMPDEST DUP3 DUP1 SLOAD PUSH3 0xA4 SWAP1 PUSH3 0x13C JUMP JUMPDEST SWAP1 PUSH1 0x0 MSTORE PUSH1 0x20 PUSH1 0x0 KECCAK256 SWAP1 PUSH1 0x1F ADD PUSH1 0x20 SWAP1 DIV DUP2 ADD SWAP3 DUP3 PUSH3 0xC8 JUMPI PUSH1 0x0 DUP6 SSTORE PUSH3 0x113 JUMP JUMPDEST DUP3 PUSH1 0x1F LT PUSH3 0xE3 JUMPI DUP1 MLOAD PUSH1 0xFF NOT AND DUP4 DUP1 ADD OR DUP6 SSTORE PUSH3 0x113 JUMP JUMPDEST DUP3 DUP1 ADD PUSH1 0x1 ADD DUP6 SSTORE DUP3 ISZERO PUSH3 0x113 JUMPI SWAP2 DUP3 ADD JUMPDEST DUP3 DUP2 GT ISZERO PUSH3 0x113 JUMPI DUP3 MLOAD DUP3 SSTORE SWAP2 PUSH1 0x20 ADD SWAP2 SWAP1 PUSH1 0x1 ADD SWAP1 PUSH3 0xF6 JUMP JUMPDEST POP PUSH3 0x121 SWAP3 SWAP2 POP PUSH3 0x125 JUMP JUMPDEST POP SWAP1 JUMP JUMPDEST JUMPDEST DUP1 DUP3 GT ISZERO PUSH3 0x121 JUMPI PUSH1 0x0 DUP2 SSTORE PUSH1 0x1 ADD PUSH3 0x126 JUMP JUMPDEST PUSH1 0x1 DUP2 DUP2 SHR SWAP1 DUP3 AND DUP1 PUSH3 0x151 JUMPI PUSH1 0x7F DUP3 AND SWAP2 POP JUMPDEST PUSH1 0x20 DUP3 LT DUP2 EQ ISZERO PUSH3 0x173 JUMPI PUSH4 0x4E487B71 PUSH1 0xE0 SHL PUSH1 0x0 MSTORE PUSH1 0x22 PUSH1 0x4 MSTORE PUSH1 0x24 PUSH1 0x0 REVERT JUMPDEST POP SWAP2 SWAP1 POP JUMP JUMPDEST PUSH2 0x12C8 DUP1 PUSH3 0x189 PUSH1 0x0 CODECOPY PUSH1 0x0 RETURN INVALID PUSH1 0x80 PUSH1 0x40 MSTORE CALLVALUE DUP1 ISZERO PUSH2 0x10 JUMPI PUSH1 0x0 DUP1 REVERT JUMPDEST POP PUSH1 0x4 CALLDATASIZE LT PUSH2 0x100 JUMPI PUSH1 0x0 CALLDATALOAD PUSH1 0xE0 SHR DUP1 PUSH4 0x8DA5CB5B GT PUSH2 0x97 JUMPI DUP1 PUSH4 0xC87B56DD GT PUSH2 0x66 JUMPI DUP1 PUSH4 0xC87B56DD EQ PUSH2 0x21D JUMPI DUP1 PUSH4 0xD082E381 EQ PUSH2 0x230 JUMPI DUP1 PUSH4 0xE985E9C5 EQ PUSH2 0x239 JUMPI DUP1 PUSH4 0xF610BAE6 EQ PUSH2 0x275 JUMPI PUSH1 0x0 DUP1 REVERT JUMPDEST DUP1 PUSH4 0x8DA5CB5B EQ PUSH2 0x1DC JUMPI DUP1 PUSH4 0x95D89B41 EQ PUSH2 0x1EF JUMPI DUP1 PUSH4 0xA22CB465 EQ PUSH2 0x1F7 JUMPI DUP1 PUSH4 0xB88D4FDE EQ PUSH2 0x20A JUMPI PUSH1 0x0 DUP1 REVERT JUMPDEST DUP1 PUSH4 0x23B872DD GT PUSH2 0xD3 JUMPI DUP1 PUSH4 0x23B872DD EQ PUSH2 0x182 JUMPI DUP1 PUSH4 0x42842E0E EQ PUSH2 0x195 JUMPI DUP1 PUSH4 0x6352211E EQ PUSH2 0x1A8 JUMPI DUP1 PUSH4 0x70A08231 EQ PUSH2 0x1BB JUMPI PUSH1 0x0 DUP1 REVERT JUMPDEST DUP1 PUSH4 0x1FFC9A7 EQ PUSH2 0x105 JUMPI DUP1 PUSH4 0x6FDDE03 EQ PUSH2 0x12D JUMPI DUP1 PUSH4 0x81812FC EQ PUSH2 0x142 JUMPI DUP1 PUSH4 0x95EA7B3 EQ PUSH2 0x16D JUMPI JUMPDEST PUSH1 0x0 DUP1 REVERT JUMPDEST PUSH2 0x118 PUSH2 0x113 CALLDATASIZE PUSH1 0x4 PUSH2 0xE1E JUMP JUMPDEST PUSH2 0x288 JUMP JUMPDEST PUSH1 0x40 MLOAD SWAP1 ISZERO ISZERO DUP2 MSTORE PUSH1 0x20 ADD JUMPDEST PUSH1 0x40 MLOAD DUP1 SWAP2 SUB SWAP1 RETURN JUMPDEST PUSH2 0x135 PUSH2 0x2DA JUMP JUMPDEST PUSH1 0x40 MLOAD PUSH2 0x124 SWAP2 SWAP1 PUSH2 0xE9A JUMP JUMPDEST PUSH2 0x155 PUSH2 0x150 CALLDATASIZE PUSH1 0x4 PUSH2 0xEAD JUMP JUMPDEST PUSH2 0x36C JUMP JUMPDEST PUSH1 0x40 MLOAD PUSH1 0x1 PUSH1 0x1 PUSH1 0xA0 SHL SUB SWAP1 SWAP2 AND DUP2 MSTORE PUSH1 0x20 ADD PUSH2 0x124 JUMP JUMPDEST PUSH2 0x180 PUSH2 0x17B CALLDATASIZE PUSH1 0x4 PUSH2 0xEE2 JUMP JUMPDEST PUSH2 0x406 JUMP JUMPDEST STOP JUMPDEST PUSH2 0x180 PUSH2 0x190 CALLDATASIZE PUSH1 0x4 PUSH2 0xF0C JUMP JUMPDEST PUSH2 0x51C JUMP JUMPDEST PUSH2 0x180 PUSH2 0x1A3 CALLDATASIZE PUSH1 0x4 PUSH2 0xF0C JUMP JUMPDEST PUSH2 0x54D JUMP JUMPDEST PUSH2 0x155 PUSH2 0x1B6 CALLDATASIZE PUSH1 0x4 PUSH2 0xEAD JUMP JUMPDEST PUSH2 0x568 JUMP JUMPDEST PUSH2 0x1CE PUSH2 0x1C9 CALLDATASIZE PUSH1 0x4 PUSH2 0xF48 JUMP JUMPDEST PUSH2 0x5DF JUMP JUMPDEST PUSH1 0x40 MLOAD SWAP1 DUP2 MSTORE PUSH1 0x20 ADD PUSH2 0x124 JUMP JUMPDEST PUSH1 0x7 SLOAD PUSH2 0x155 SWAP1 PUSH1 0x1 PUSH1 0x1 PUSH1 0xA0 SHL SUB AND DUP2 JUMP JUMPDEST PUSH2 0x135 PUSH2 0x666 JUMP JUMPDEST PUSH2 0x180 PUSH2 0x205 CALLDATASIZE PUSH1 0x4 PUSH2 0xF63 JUMP JUMPDEST PUSH2 0x675 JUMP JUMPDEST PUSH2 0x180 PUSH2 0x218 CALLDATASIZE PUSH1 0x4 PUSH2 0xFB5 JUMP JUMPDEST PUSH2 0x684 JUMP JUMPDEST PUSH2 0x135 PUSH2 0x22B CALLDATASIZE PUSH1 0x4 PUSH2 0xEAD JUMP JUMPDEST PUSH2 0x6BC JUMP JUMPDEST PUSH2 0x1CE PUSH1 0x6 SLOAD DUP2 JUMP JUMPDEST PUSH2 0x118 PUSH2 0x247 CALLDATASIZE PUSH1 0x4 PUSH2 0x1091 JUMP JUMPDEST PUSH1 0x1 PUSH1 0x1 PUSH1 0xA0 SHL SUB SWAP2 DUP3 AND PUSH1 0x0 SWAP1 DUP2 MSTORE PUSH1 0x5 PUSH1 0x20 SWAP1 DUP2 MSTORE PUSH1 0x40 DUP1 DUP4 KECCAK256 SWAP4 SWAP1 SWAP5 AND DUP3 MSTORE SWAP2 SWAP1 SWAP2 MSTORE KECCAK256 SLOAD PUSH1 0xFF AND SWAP1 JUMP JUMPDEST PUSH2 0x180 PUSH2 0x283 CALLDATASIZE PUSH1 0x4 PUSH2 0xF48 JUMP JUMPDEST PUSH2 0x769 JUMP JUMPDEST PUSH1 0x0 PUSH1 0x1 PUSH1 0x1 PUSH1 0xE0 SHL SUB NOT DUP3 AND PUSH4 0x80AC58CD PUSH1 0xE0 SHL EQ DUP1 PUSH2 0x2B9 JUMPI POP PUSH1 0x1 PUSH1 0x1 PUSH1 0xE0 SHL SUB NOT DUP3 AND PUSH4 0x5B5E139F PUSH1 0xE0 SHL EQ JUMPDEST DUP1 PUSH2 0x2D4 JUMPI POP PUSH4 0x1FFC9A7 PUSH1 0xE0 SHL PUSH1 0x1 PUSH1 0x1 PUSH1 0xE0 SHL SUB NOT DUP4 AND EQ JUMPDEST SWAP3 SWAP2 POP POP JUMP JUMPDEST PUSH1 0x60 PUSH1 0x0 DUP1 SLOAD PUSH2 0x2E9 SWAP1 PUSH2 0x10C4 JUMP JUMPDEST DUP1 PUSH1 0x1F ADD PUSH1 0x20 DUP1 SWAP2 DIV MUL PUSH1 0x20 ADD PUSH1 0x40 MLOAD SWAP1 DUP2 ADD PUSH1 0x40 MSTORE DUP1 SWAP3 SWAP2 SWAP1 DUP2 DUP2 MSTORE PUSH1 0x20 ADD DUP3 DUP1 SLOAD PUSH2 0x315 SWAP1 PUSH2 0x10C4 JUMP JUMPDEST DUP1 ISZERO PUSH2 0x362 JUMPI DUP1 PUSH1 0x1F LT PUSH2 0x337 JUMPI PUSH2 0x100 DUP1 DUP4 SLOAD DIV MUL DUP4 MSTORE SWAP2 PUSH1 0x20 ADD SWAP2 PUSH2 0x362 JUMP JUMPDEST DUP3 ADD SWAP2 SWAP1 PUSH1 0x0 MSTORE PUSH1 0x20 PUSH1 0x0 KECCAK256 SWAP1 JUMPDEST DUP2 SLOAD DUP2 MSTORE SWAP1 PUSH1 0x1 ADD SWAP1 PUSH1 0x20 ADD DUP1 DUP4 GT PUSH2 0x345 JUMPI DUP3 SWAP1 SUB PUSH1 0x1F AND DUP3 ADD SWAP2 JUMPDEST POP POP POP POP POP SWAP1 POP SWAP1 JUMP JUMPDEST PUSH1 0x0 DUP2 DUP2 MSTORE PUSH1 0x2 PUSH1 0x20 MSTORE PUSH1 0x40 DUP2 KECCAK256 SLOAD PUSH1 0x1 PUSH1 0x1 PUSH1 0xA0 SHL SUB AND PUSH2 0x3EA JUMPI PUSH1 0x40 MLOAD PUSH3 0x461BCD PUSH1 0xE5 SHL DUP2 MSTORE PUSH1 0x20 PUSH1 0x4 DUP3 ADD MSTORE PUSH1 0x2C PUSH1 0x24 DUP3 ADD MSTORE PUSH32 0x4552433732313A20617070726F76656420717565727920666F72206E6F6E6578 PUSH1 0x44 DUP3 ADD MSTORE PUSH12 0x34B9BA32B73A103A37B5B2B7 PUSH1 0xA1 SHL PUSH1 0x64 DUP3 ADD MSTORE PUSH1 0x84 ADD JUMPDEST PUSH1 0x40 MLOAD DUP1 SWAP2 SUB SWAP1 REVERT JUMPDEST POP PUSH1 0x0 SWAP1 DUP2 MSTORE PUSH1 0x4 PUSH1 0x20 MSTORE PUSH1 0x40 SWAP1 KECCAK256 SLOAD PUSH1 0x1 PUSH1 0x1 PUSH1 0xA0 SHL SUB AND SWAP1 JUMP JUMPDEST PUSH1 0x0 PUSH2 0x411 DUP3 PUSH2 0x568 JUMP JUMPDEST SWAP1 POP DUP1 PUSH1 0x1 PUSH1 0x1 PUSH1 0xA0 SHL SUB AND DUP4 PUSH1 0x1 PUSH1 0x1 PUSH1 0xA0 SHL SUB AND EQ ISZERO PUSH2 0x47F JUMPI PUSH1 0x40 MLOAD PUSH3 0x461BCD PUSH1 0xE5 SHL DUP2 MSTORE PUSH1 0x20 PUSH1 0x4 DUP3 ADD MSTORE PUSH1 0x21 PUSH1 0x24 DUP3 ADD MSTORE PUSH32 0x4552433732313A20617070726F76616C20746F2063757272656E74206F776E65 PUSH1 0x44 DUP3 ADD MSTORE PUSH1 0x39 PUSH1 0xF9 SHL PUSH1 0x64 DUP3 ADD MSTORE PUSH1 0x84 ADD PUSH2 0x3E1 JUMP JUMPDEST CALLER PUSH1 0x1 PUSH1 0x1 PUSH1 0xA0 SHL SUB DUP3 AND EQ DUP1 PUSH2 0x49B JUMPI POP PUSH2 0x49B DUP2 CALLER PUSH2 0x247 JUMP JUMPDEST PUSH2 0x50D JUMPI PUSH1 0x40 MLOAD PUSH3 0x461BCD PUSH1 0xE5 SHL DUP2 MSTORE PUSH1 0x20 PUSH1 0x4 DUP3 ADD MSTORE PUSH1 0x38 PUSH1 0x24 DUP3 ADD MSTORE PUSH32 0x4552433732313A20617070726F76652063616C6C6572206973206E6F74206F77 PUSH1 0x44 DUP3 ADD MSTORE PUSH32 0x6E6572206E6F7220617070726F76656420666F7220616C6C0000000000000000 PUSH1 0x64 DUP3 ADD MSTORE PUSH1 0x84 ADD PUSH2 0x3E1 JUMP JUMPDEST PUSH2 0x517 DUP4 DUP4 PUSH2 0x7A2 JUMP JUMPDEST POP POP POP JUMP JUMPDEST PUSH2 0x526 CALLER DUP3 PUSH2 0x810 JUMP JUMPDEST PUSH2 0x542 JUMPI PUSH1 0x40 MLOAD PUSH3 0x461BCD PUSH1 0xE5 SHL DUP2 MSTORE PUSH1 0x4 ADD PUSH2 0x3E1 SWAP1 PUSH2 0x10FF JUMP JUMPDEST PUSH2 0x517 DUP4 DUP4 DUP4 PUSH2 0x907 JUMP JUMPDEST PUSH2 0x517 DUP4 DUP4 DUP4 PUSH1 0x40 MLOAD DUP1 PUSH1 0x20 ADD PUSH1 0x40 MSTORE DUP1 PUSH1 0x0 DUP2 MSTORE POP PUSH2 0x684 JUMP JUMPDEST PUSH1 0x0 DUP2 DUP2 MSTORE PUSH1 0x2 PUSH1 0x20 MSTORE PUSH1 0x40 DUP2 KECCAK256 SLOAD PUSH1 0x1 PUSH1 0x1 PUSH1 0xA0 SHL SUB AND DUP1 PUSH2 0x2D4 JUMPI PUSH1 0x40 MLOAD PUSH3 0x461BCD PUSH1 0xE5 SHL DUP2 MSTORE PUSH1 0x20 PUSH1 0x4 DUP3 ADD MSTORE PUSH1 0x29 PUSH1 0x24 DUP3 ADD MSTORE PUSH32 0x4552433732313A206F776E657220717565727920666F72206E6F6E6578697374 PUSH1 0x44 DUP3 ADD MSTORE PUSH9 0x32B73A103A37B5B2B7 PUSH1 0xB9 SHL PUSH1 0x64 DUP3 ADD MSTORE PUSH1 0x84 ADD PUSH2 0x3E1 JUMP JUMPDEST PUSH1 0x0 PUSH1 0x1 PUSH1 0x1 PUSH1 0xA0 SHL SUB DUP3 AND PUSH2 0x64A JUMPI PUSH1 0x40 MLOAD PUSH3 0x461BCD PUSH1 0xE5 SHL DUP2 MSTORE PUSH1 0x20 PUSH1 0x4 DUP3 ADD MSTORE PUSH1 0x2A PUSH1 0x24 DUP3 ADD MSTORE PUSH32 0x4552433732313A2062616C616E636520717565727920666F7220746865207A65 PUSH1 0x44 DUP3 ADD MSTORE PUSH10 0x726F2061646472657373 PUSH1 0xB0 SHL PUSH1 0x64 DUP3 ADD MSTORE PUSH1 0x84 ADD PUSH2 0x3E1 JUMP JUMPDEST POP PUSH1 0x1 PUSH1 0x1 PUSH1 0xA0 SHL SUB AND PUSH1 0x0 SWAP1 DUP2 MSTORE PUSH1 0x3 PUSH1 0x20 MSTORE PUSH1 0x40 SWAP1 KECCAK256 SLOAD SWAP1 JUMP JUMPDEST PUSH1 0x60 PUSH1 0x1 DUP1 SLOAD PUSH2 0x2E9 SWAP1 PUSH2 0x10C4 JUMP JUMPDEST PUSH2 0x680 CALLER DUP4 DUP4 PUSH2 0xAA3 JUMP JUMPDEST POP POP JUMP JUMPDEST PUSH2 0x68E CALLER DUP4 PUSH2 0x810 JUMP JUMPDEST PUSH2 0x6AA JUMPI PUSH1 0x40 MLOAD PUSH3 0x461BCD PUSH1 0xE5 SHL DUP2 MSTORE PUSH1 0x4 ADD PUSH2 0x3E1 SWAP1 PUSH2 0x10FF JUMP JUMPDEST PUSH2 0x6B6 DUP5 DUP5 DUP5 DUP5 PUSH2 0xB72 JUMP JUMPDEST POP POP POP POP JUMP JUMPDEST PUSH1 0x0 DUP2 DUP2 MSTORE PUSH1 0x2 PUSH1 0x20 MSTORE PUSH1 0x40 SWAP1 KECCAK256 SLOAD PUSH1 0x60 SWAP1 PUSH1 0x1 PUSH1 0x1 PUSH1 0xA0 SHL SUB AND PUSH2 0x73B JUMPI PUSH1 0x40 MLOAD PUSH3 0x461BCD PUSH1 0xE5 SHL DUP2 MSTORE PUSH1 0x20 PUSH1 0x4 DUP3 ADD MSTORE PUSH1 0x2F PUSH1 0x24 DUP3 ADD MSTORE PUSH32 0x4552433732314D657461646174613A2055524920717565727920666F72206E6F PUSH1 0x44 DUP3 ADD MSTORE PUSH15 0x3732BC34B9BA32B73A103A37B5B2B7 PUSH1 0x89 SHL PUSH1 0x64 DUP3 ADD MSTORE PUSH1 0x84 ADD PUSH2 0x3E1 JUMP JUMPDEST PUSH2 0x743 PUSH2 0xBA5 JUMP JUMPDEST PUSH1 0x40 MLOAD PUSH1 0x20 ADD PUSH2 0x753 SWAP2 SWAP1 PUSH2 0x1150 JUMP JUMPDEST PUSH1 0x40 MLOAD PUSH1 0x20 DUP2 DUP4 SUB SUB DUP2 MSTORE SWAP1 PUSH1 0x40 MSTORE SWAP1 POP SWAP2 SWAP1 POP JUMP JUMPDEST PUSH1 0x7 SLOAD PUSH1 0x1 PUSH1 0x1 PUSH1 0xA0 SHL SUB AND CALLER EQ PUSH2 0x780 JUMPI PUSH1 0x0 DUP1 REVERT JUMPDEST PUSH1 0x6 SLOAD PUSH2 0x78D DUP3 DUP3 PUSH2 0xBC5 JUMP JUMPDEST PUSH1 0x6 SLOAD PUSH2 0x79B SWAP1 PUSH1 0x1 PUSH2 0x1182 JUMP JUMPDEST PUSH1 0x6 SSTORE POP POP JUMP JUMPDEST PUSH1 0x0 DUP2 DUP2 MSTORE PUSH1 0x4 PUSH1 0x20 MSTORE PUSH1 0x40 SWAP1 KECCAK256 DUP1 SLOAD PUSH1 0x1 PUSH1 0x1 PUSH1 0xA0 SHL SUB NOT AND PUSH1 0x1 PUSH1 0x1 PUSH1 0xA0 SHL SUB DUP5 AND SWAP1 DUP2 OR SWAP1 SWAP2 SSTORE DUP2 SWAP1 PUSH2 0x7D7 DUP3 PUSH2 0x568 JUMP JUMPDEST PUSH1 0x1 PUSH1 0x1 PUSH1 0xA0 SHL SUB AND PUSH32 0x8C5BE1E5EBEC7D5BD14F71427D1E84F3DD0314C0F7B2291E5B200AC8C7C3B925 PUSH1 0x40 MLOAD PUSH1 0x40 MLOAD DUP1 SWAP2 SUB SWAP1 LOG4 POP POP JUMP JUMPDEST PUSH1 0x0 DUP2 DUP2 MSTORE PUSH1 0x2 PUSH1 0x20 MSTORE PUSH1 0x40 DUP2 KECCAK256 SLOAD PUSH1 0x1 PUSH1 0x1 PUSH1 0xA0 SHL SUB AND PUSH2 0x889 JUMPI PUSH1 0x40 MLOAD PUSH3 0x461BCD PUSH1 0xE5 SHL DUP2 MSTORE PUSH1 0x20 PUSH1 0x4 DUP3 ADD MSTORE PUSH1 0x2C PUSH1 0x24 DUP3 ADD MSTORE PUSH32 0x4552433732313A206F70657261746F7220717565727920666F72206E6F6E6578 PUSH1 0x44 DUP3 ADD MSTORE PUSH12 0x34B9BA32B73A103A37B5B2B7 PUSH1 0xA1 SHL PUSH1 0x64 DUP3 ADD MSTORE PUSH1 0x84 ADD PUSH2 0x3E1 JUMP JUMPDEST PUSH1 0x0 PUSH2 0x894 DUP4 PUSH2 0x568 JUMP JUMPDEST SWAP1 POP DUP1 PUSH1 0x1 PUSH1 0x1 PUSH1 0xA0 SHL SUB AND DUP5 PUSH1 0x1 PUSH1 0x1 PUSH1 0xA0 SHL SUB AND EQ DUP1 PUSH2 0x8CF JUMPI POP DUP4 PUSH1 0x1 PUSH1 0x1 PUSH1 0xA0 SHL SUB AND PUSH2 0x8C4 DUP5 PUSH2 0x36C JUMP JUMPDEST PUSH1 0x1 PUSH1 0x1 PUSH1 0xA0 SHL SUB AND EQ JUMPDEST DUP1 PUSH2 0x8FF JUMPI POP PUSH1 0x1 PUSH1 0x1 PUSH1 0xA0 SHL SUB DUP1 DUP3 AND PUSH1 0x0 SWAP1 DUP2 MSTORE PUSH1 0x5 PUSH1 0x20 SWAP1 DUP2 MSTORE PUSH1 0x40 DUP1 DUP4 KECCAK256 SWAP4 DUP9 AND DUP4 MSTORE SWAP3 SWAP1 MSTORE KECCAK256 SLOAD PUSH1 0xFF AND JUMPDEST SWAP5 SWAP4 POP POP POP POP JUMP JUMPDEST DUP3 PUSH1 0x1 PUSH1 0x1 PUSH1 0xA0 SHL SUB AND PUSH2 0x91A DUP3 PUSH2 0x568 JUMP JUMPDEST PUSH1 0x1 PUSH1 0x1 PUSH1 0xA0 SHL SUB AND EQ PUSH2 0x97E JUMPI PUSH1 0x40 MLOAD PUSH3 0x461BCD PUSH1 0xE5 SHL DUP2 MSTORE PUSH1 0x20 PUSH1 0x4 DUP3 ADD MSTORE PUSH1 0x25 PUSH1 0x24 DUP3 ADD MSTORE PUSH32 0x4552433732313A207472616E736665722066726F6D20696E636F727265637420 PUSH1 0x44 DUP3 ADD MSTORE PUSH5 0x37BBB732B9 PUSH1 0xD9 SHL PUSH1 0x64 DUP3 ADD MSTORE PUSH1 0x84 ADD PUSH2 0x3E1 JUMP JUMPDEST PUSH1 0x1 PUSH1 0x1 PUSH1 0xA0 SHL SUB DUP3 AND PUSH2 0x9E0 JUMPI PUSH1 0x40 MLOAD PUSH3 0x461BCD PUSH1 0xE5 SHL DUP2 MSTORE PUSH1 0x20 PUSH1 0x4 DUP3 ADD MSTORE PUSH1 0x24 DUP1 DUP3 ADD MSTORE PUSH32 0x4552433732313A207472616E7366657220746F20746865207A65726F20616464 PUSH1 0x44 DUP3 ADD MSTORE PUSH4 0x72657373 PUSH1 0xE0 SHL PUSH1 0x64 DUP3 ADD MSTORE PUSH1 0x84 ADD PUSH2 0x3E1 JUMP JUMPDEST PUSH2 0x9EB PUSH1 0x0 DUP3 PUSH2 0x7A2 JUMP JUMPDEST PUSH1 0x1 PUSH1 0x1 PUSH1 0xA0 SHL SUB DUP4 AND PUSH1 0x0 SWAP1 DUP2 MSTORE PUSH1 0x3 PUSH1 0x20 MSTORE PUSH1 0x40 DUP2 KECCAK256 DUP1 SLOAD PUSH1 0x1 SWAP3 SWAP1 PUSH2 0xA14 SWAP1 DUP5 SWAP1 PUSH2 0x119A JUMP JUMPDEST SWAP1 SWAP2 SSTORE POP POP PUSH1 0x1 PUSH1 0x1 PUSH1 0xA0 SHL SUB DUP3 AND PUSH1 0x0 SWAP1 DUP2 MSTORE PUSH1 0x3 PUSH1 0x20 MSTORE PUSH1 0x40 DUP2 KECCAK256 DUP1 SLOAD PUSH1 0x1 SWAP3 SWAP1 PUSH2 0xA42 SWAP1 DUP5 SWAP1 PUSH2 0x1182 JUMP JUMPDEST SWAP1 SWAP2 SSTORE POP POP PUSH1 0x0 DUP2 DUP2 MSTORE PUSH1 0x2 PUSH1 0x20 MSTORE PUSH1 0x40 DUP1 DUP3 KECCAK256 DUP1 SLOAD PUSH1 0x1 PUSH1 0x1 PUSH1 0xA0 SHL SUB NOT AND PUSH1 0x1 PUSH1 0x1 PUSH1 0xA0 SHL SUB DUP7 DUP2 AND SWAP2 DUP3 OR SWAP1 SWAP3 SSTORE SWAP2 MLOAD DUP5 SWAP4 SWAP2 DUP8 AND SWAP2 PUSH32 0xDDF252AD1BE2C89B69C2B068FC378DAA952BA7F163C4A11628F55A4DF523B3EF SWAP2 LOG4 POP POP POP JUMP JUMPDEST DUP2 PUSH1 0x1 PUSH1 0x1 PUSH1 0xA0 SHL SUB AND DUP4 PUSH1 0x1 PUSH1 0x1 PUSH1 0xA0 SHL SUB AND EQ ISZERO PUSH2 0xB05 JUMPI PUSH1 0x40 MLOAD PUSH3 0x461BCD PUSH1 0xE5 SHL DUP2 MSTORE PUSH1 0x20 PUSH1 0x4 DUP3 ADD MSTORE PUSH1 0x19 PUSH1 0x24 DUP3 ADD MSTORE PUSH32 0x4552433732313A20617070726F766520746F2063616C6C657200000000000000 PUSH1 0x44 DUP3 ADD MSTORE PUSH1 0x64 ADD PUSH2 0x3E1 JUMP JUMPDEST PUSH1 0x1 PUSH1 0x1 PUSH1 0xA0 SHL SUB DUP4 DUP2 AND PUSH1 0x0 DUP2 DUP2 MSTORE PUSH1 0x5 PUSH1 0x20 SWAP1 DUP2 MSTORE PUSH1 0x40 DUP1 DUP4 KECCAK256 SWAP5 DUP8 AND DUP1 DUP5 MSTORE SWAP5 DUP3 MSTORE SWAP2 DUP3 SWAP1 KECCAK256 DUP1 SLOAD PUSH1 0xFF NOT AND DUP7 ISZERO ISZERO SWAP1 DUP2 OR SWAP1 SWAP2 SSTORE SWAP2 MLOAD SWAP2 DUP3 MSTORE PUSH32 0x17307EAB39AB6107E8899845AD3D59BD9653F200F220920489CA2B5937696C31 SWAP2 ADD PUSH1 0x40 MLOAD DUP1 SWAP2 SUB SWAP1 LOG3 POP POP POP JUMP JUMPDEST PUSH2 0xB7D DUP5 DUP5 DUP5 PUSH2 0x907 JUMP JUMPDEST PUSH2 0xB89 DUP5 DUP5 DUP5 DUP5 PUSH2 0xD07 JUMP JUMPDEST PUSH2 0x6B6 JUMPI PUSH1 0x40 MLOAD PUSH3 0x461BCD PUSH1 0xE5 SHL DUP2 MSTORE PUSH1 0x4 ADD PUSH2 0x3E1 SWAP1 PUSH2 0x11B1 JUMP JUMPDEST PUSH1 0x60 PUSH1 0x40 MLOAD DUP1 PUSH1 0x60 ADD PUSH1 0x40 MSTORE DUP1 PUSH1 0x35 DUP2 MSTORE PUSH1 0x20 ADD PUSH2 0x125E PUSH1 0x35 SWAP2 CODECOPY SWAP1 POP SWAP1 JUMP JUMPDEST PUSH1 0x1 PUSH1 0x1 PUSH1 0xA0 SHL SUB DUP3 AND PUSH2 0xC1B JUMPI PUSH1 0x40 MLOAD PUSH3 0x461BCD PUSH1 0xE5 SHL DUP2 MSTORE PUSH1 0x20 PUSH1 0x4 DUP3 ADD DUP2 SWAP1 MSTORE PUSH1 0x24 DUP3 ADD MSTORE PUSH32 0x4552433732313A206D696E7420746F20746865207A65726F2061646472657373 PUSH1 0x44 DUP3 ADD MSTORE PUSH1 0x64 ADD PUSH2 0x3E1 JUMP JUMPDEST PUSH1 0x0 DUP2 DUP2 MSTORE PUSH1 0x2 PUSH1 0x20 MSTORE PUSH1 0x40 SWAP1 KECCAK256 SLOAD PUSH1 0x1 PUSH1 0x1 PUSH1 0xA0 SHL SUB AND ISZERO PUSH2 0xC80 JUMPI PUSH1 0x40 MLOAD PUSH3 0x461BCD PUSH1 0xE5 SHL DUP2 MSTORE PUSH1 0x20 PUSH1 0x4 DUP3 ADD MSTORE PUSH1 0x1C PUSH1 0x24 DUP3 ADD MSTORE PUSH32 0x4552433732313A20746F6B656E20616C7265616479206D696E74656400000000 PUSH1 0x44 DUP3 ADD MSTORE PUSH1 0x64 ADD PUSH2 0x3E1 JUMP JUMPDEST PUSH1 0x1 PUSH1 0x1 PUSH1 0xA0 SHL SUB DUP3 AND PUSH1 0x0 SWAP1 DUP2 MSTORE PUSH1 0x3 PUSH1 0x20 MSTORE PUSH1 0x40 DUP2 KECCAK256 DUP1 SLOAD PUSH1 0x1 SWAP3 SWAP1 PUSH2 0xCA9 SWAP1 DUP5 SWAP1 PUSH2 0x1182 JUMP JUMPDEST SWAP1 SWAP2 SSTORE POP POP PUSH1 0x0 DUP2 DUP2 MSTORE PUSH1 0x2 PUSH1 0x20 MSTORE PUSH1 0x40 DUP1 DUP3 KECCAK256 DUP1 SLOAD PUSH1 0x1 PUSH1 0x1 PUSH1 0xA0 SHL SUB NOT AND PUSH1 0x1 PUSH1 0x1 PUSH1 0xA0 SHL SUB DUP7 AND SWAP1 DUP2 OR SWAP1 SWAP2 SSTORE SWAP1 MLOAD DUP4 SWAP3 SWAP1 PUSH32 0xDDF252AD1BE2C89B69C2B068FC378DAA952BA7F163C4A11628F55A4DF523B3EF SWAP1 DUP3 SWAP1 LOG4 POP POP JUMP JUMPDEST PUSH1 0x0 PUSH1 0x1 PUSH1 0x1 PUSH1 0xA0 SHL SUB DUP5 AND EXTCODESIZE ISZERO PUSH2 0xDFA JUMPI PUSH1 0x40 MLOAD PUSH4 0xA85BD01 PUSH1 0xE1 SHL DUP2 MSTORE PUSH1 0x1 PUSH1 0x1 PUSH1 0xA0 SHL SUB DUP6 AND SWAP1 PUSH4 0x150B7A02 SWAP1 PUSH2 0xD4B SWAP1 CALLER SWAP1 DUP10 SWAP1 DUP9 SWAP1 DUP9 SWAP1 PUSH1 0x4 ADD PUSH2 0x1203 JUMP JUMPDEST PUSH1 0x20 PUSH1 0x40 MLOAD DUP1 DUP4 SUB DUP2 PUSH1 0x0 DUP8 GAS CALL SWAP3 POP POP POP DUP1 ISZERO PUSH2 0xD86 JUMPI POP PUSH1 0x40 DUP1 MLOAD PUSH1 0x1F RETURNDATASIZE SWAP1 DUP2 ADD PUSH1 0x1F NOT AND DUP3 ADD SWAP1 SWAP3 MSTORE PUSH2 0xD83 SWAP2 DUP2 ADD SWAP1 PUSH2 0x1240 JUMP JUMPDEST PUSH1 0x1 JUMPDEST PUSH2 0xDE0 JUMPI RETURNDATASIZE DUP1 DUP1 ISZERO PUSH2 0xDB4 JUMPI PUSH1 0x40 MLOAD SWAP2 POP PUSH1 0x1F NOT PUSH1 0x3F RETURNDATASIZE ADD AND DUP3 ADD PUSH1 0x40 MSTORE RETURNDATASIZE DUP3 MSTORE RETURNDATASIZE PUSH1 0x0 PUSH1 0x20 DUP5 ADD RETURNDATACOPY PUSH2 0xDB9 JUMP JUMPDEST PUSH1 0x60 SWAP2 POP JUMPDEST POP DUP1 MLOAD PUSH2 0xDD8 JUMPI PUSH1 0x40 MLOAD PUSH3 0x461BCD PUSH1 0xE5 SHL DUP2 MSTORE PUSH1 0x4 ADD PUSH2 0x3E1 SWAP1 PUSH2 0x11B1 JUMP JUMPDEST DUP1 MLOAD DUP2 PUSH1 0x20 ADD REVERT JUMPDEST PUSH1 0x1 PUSH1 0x1 PUSH1 0xE0 SHL SUB NOT AND PUSH4 0xA85BD01 PUSH1 0xE1 SHL EQ SWAP1 POP PUSH2 0x8FF JUMP JUMPDEST POP PUSH1 0x1 SWAP5 SWAP4 POP POP POP POP JUMP JUMPDEST PUSH1 0x1 PUSH1 0x1 PUSH1 0xE0 SHL SUB NOT DUP2 AND DUP2 EQ PUSH2 0xE1B JUMPI PUSH1 0x0 DUP1 REVERT JUMPDEST POP JUMP JUMPDEST PUSH1 0x0 PUSH1 0x20 DUP3 DUP5 SUB SLT ISZERO PUSH2 0xE30 JUMPI PUSH1 0x0 DUP1 REVERT JUMPDEST DUP2 CALLDATALOAD PUSH2 0xE3B DUP2 PUSH2 0xE05 JUMP JUMPDEST SWAP4 SWAP3 POP POP POP JUMP JUMPDEST PUSH1 0x0 JUMPDEST DUP4 DUP2 LT ISZERO PUSH2 0xE5D JUMPI DUP2 DUP2 ADD MLOAD DUP4 DUP3 ADD MSTORE PUSH1 0x20 ADD PUSH2 0xE45 JUMP JUMPDEST DUP4 DUP2 GT ISZERO PUSH2 0x6B6 JUMPI POP POP PUSH1 0x0 SWAP2 ADD MSTORE JUMP JUMPDEST PUSH1 0x0 DUP2 MLOAD DUP1 DUP5 MSTORE PUSH2 0xE86 DUP2 PUSH1 0x20 DUP7 ADD PUSH1 0x20 DUP7 ADD PUSH2 0xE42 JUMP JUMPDEST PUSH1 0x1F ADD PUSH1 0x1F NOT AND SWAP3 SWAP1 SWAP3 ADD PUSH1 0x20 ADD SWAP3 SWAP2 POP POP JUMP JUMPDEST PUSH1 0x20 DUP2 MSTORE PUSH1 0x0 PUSH2 0xE3B PUSH1 0x20 DUP4 ADD DUP5 PUSH2 0xE6E JUMP JUMPDEST PUSH1 0x0 PUSH1 0x20 DUP3 DUP5 SUB SLT ISZERO PUSH2 0xEBF JUMPI PUSH1 0x0 DUP1 REVERT JUMPDEST POP CALLDATALOAD SWAP2 SWAP1 POP JUMP JUMPDEST DUP1 CALLDATALOAD PUSH1 0x1 PUSH1 0x1 PUSH1 0xA0 SHL SUB DUP2 AND DUP2 EQ PUSH2 0xEDD JUMPI PUSH1 0x0 DUP1 REVERT JUMPDEST SWAP2 SWAP1 POP JUMP JUMPDEST PUSH1 0x0 DUP1 PUSH1 0x40 DUP4 DUP6 SUB SLT ISZERO PUSH2 0xEF5 JUMPI PUSH1 0x0 DUP1 REVERT JUMPDEST PUSH2 0xEFE DUP4 PUSH2 0xEC6 JUMP JUMPDEST SWAP5 PUSH1 0x20 SWAP4 SWAP1 SWAP4 ADD CALLDATALOAD SWAP4 POP POP POP JUMP JUMPDEST PUSH1 0x0 DUP1 PUSH1 0x0 PUSH1 0x60 DUP5 DUP7 SUB SLT ISZERO PUSH2 0xF21 JUMPI PUSH1 0x0 DUP1 REVERT JUMPDEST PUSH2 0xF2A DUP5 PUSH2 0xEC6 JUMP JUMPDEST SWAP3 POP PUSH2 0xF38 PUSH1 0x20 DUP6 ADD PUSH2 0xEC6 JUMP JUMPDEST SWAP2 POP PUSH1 0x40 DUP5 ADD CALLDATALOAD SWAP1 POP SWAP3 POP SWAP3 POP SWAP3 JUMP JUMPDEST PUSH1 0x0 PUSH1 0x20 DUP3 DUP5 SUB SLT ISZERO PUSH2 0xF5A JUMPI PUSH1 0x0 DUP1 REVERT JUMPDEST PUSH2 0xE3B DUP3 PUSH2 0xEC6 JUMP JUMPDEST PUSH1 0x0 DUP1 PUSH1 0x40 DUP4 DUP6 SUB SLT ISZERO PUSH2 0xF76 JUMPI PUSH1 0x0 DUP1 REVERT JUMPDEST PUSH2 0xF7F DUP4 PUSH2 0xEC6 JUMP JUMPDEST SWAP2 POP PUSH1 0x20 DUP4 ADD CALLDATALOAD DUP1 ISZERO ISZERO DUP2 EQ PUSH2 0xF94 JUMPI PUSH1 0x0 DUP1 REVERT JUMPDEST DUP1 SWAP2 POP POP SWAP3 POP SWAP3 SWAP1 POP JUMP JUMPDEST PUSH4 0x4E487B71 PUSH1 0xE0 SHL PUSH1 0x0 MSTORE PUSH1 0x41 PUSH1 0x4 MSTORE PUSH1 0x24 PUSH1 0x0 REVERT JUMPDEST PUSH1 0x0 DUP1 PUSH1 0x0 DUP1 PUSH1 0x80 DUP6 DUP8 SUB SLT ISZERO PUSH2 0xFCB JUMPI PUSH1 0x0 DUP1 REVERT JUMPDEST PUSH2 0xFD4 DUP6 PUSH2 0xEC6 JUMP JUMPDEST SWAP4 POP PUSH2 0xFE2 PUSH1 0x20 DUP7 ADD PUSH2 0xEC6 JUMP JUMPDEST SWAP3 POP PUSH1 0x40 DUP6 ADD CALLDATALOAD SWAP2 POP PUSH1 0x60 DUP6 ADD CALLDATALOAD PUSH8 0xFFFFFFFFFFFFFFFF DUP1 DUP3 GT ISZERO PUSH2 0x1006 JUMPI PUSH1 0x0 DUP1 REVERT JUMPDEST DUP2 DUP8 ADD SWAP2 POP DUP8 PUSH1 0x1F DUP4 ADD SLT PUSH2 0x101A JUMPI PUSH1 0x0 DUP1 REVERT JUMPDEST DUP2 CALLDATALOAD DUP2 DUP2 GT ISZERO PUSH2 0x102C JUMPI PUSH2 0x102C PUSH2 0xF9F JUMP JUMPDEST PUSH1 0x40 MLOAD PUSH1 0x1F DUP3 ADD PUSH1 0x1F NOT SWAP1 DUP2 AND PUSH1 0x3F ADD AND DUP2 ADD SWAP1 DUP4 DUP3 GT DUP2 DUP4 LT OR ISZERO PUSH2 0x1054 JUMPI PUSH2 0x1054 PUSH2 0xF9F JUMP JUMPDEST DUP2 PUSH1 0x40 MSTORE DUP3 DUP2 MSTORE DUP11 PUSH1 0x20 DUP5 DUP8 ADD ADD GT ISZERO PUSH2 0x106D JUMPI PUSH1 0x0 DUP1 REVERT JUMPDEST DUP3 PUSH1 0x20 DUP7 ADD PUSH1 0x20 DUP4 ADD CALLDATACOPY PUSH1 0x0 PUSH1 0x20 DUP5 DUP4 ADD ADD MSTORE DUP1 SWAP6 POP POP POP POP POP POP SWAP3 SWAP6 SWAP2 SWAP5 POP SWAP3 POP JUMP JUMPDEST PUSH1 0x0 DUP1 PUSH1 0x40 DUP4 DUP6 SUB SLT ISZERO PUSH2 0x10A4 JUMPI PUSH1 0x0 DUP1 REVERT JUMPDEST PUSH2 0x10AD DUP4 PUSH2 0xEC6 JUMP JUMPDEST SWAP2 POP PUSH2 0x10BB PUSH1 0x20 DUP5 ADD PUSH2 0xEC6 JUMP JUMPDEST SWAP1 POP SWAP3 POP SWAP3 SWAP1 POP JUMP JUMPDEST PUSH1 0x1 DUP2 DUP2 SHR SWAP1 DUP3 AND DUP1 PUSH2 0x10D8 JUMPI PUSH1 0x7F DUP3 AND SWAP2 POP JUMPDEST PUSH1 0x20 DUP3 LT DUP2 EQ ISZERO PUSH2 0x10F9 JUMPI PUSH4 0x4E487B71 PUSH1 0xE0 SHL PUSH1 0x0 MSTORE PUSH1 0x22 PUSH1 0x4 MSTORE PUSH1 0x24 PUSH1 0x0 REVERT JUMPDEST POP SWAP2 SWAP1 POP JUMP JUMPDEST PUSH1 0x20 DUP1 DUP3 MSTORE PUSH1 0x31 SWAP1 DUP3 ADD MSTORE PUSH32 0x4552433732313A207472616E736665722063616C6C6572206973206E6F74206F PUSH1 0x40 DUP3 ADD MSTORE PUSH17 0x1DDB995C881B9BDC88185C1C1C9BDD9959 PUSH1 0x7A SHL PUSH1 0x60 DUP3 ADD MSTORE PUSH1 0x80 ADD SWAP1 JUMP JUMPDEST PUSH1 0x0 DUP3 MLOAD PUSH2 0x1162 DUP2 DUP5 PUSH1 0x20 DUP8 ADD PUSH2 0xE42 JUMP JUMPDEST SWAP2 SWAP1 SWAP2 ADD SWAP3 SWAP2 POP POP JUMP JUMPDEST PUSH4 0x4E487B71 PUSH1 0xE0 SHL PUSH1 0x0 MSTORE PUSH1 0x11 PUSH1 0x4 MSTORE PUSH1 0x24 PUSH1 0x0 REVERT JUMPDEST PUSH1 0x0 DUP3 NOT DUP3 GT ISZERO PUSH2 0x1195 JUMPI PUSH2 0x1195 PUSH2 0x116C JUMP JUMPDEST POP ADD SWAP1 JUMP JUMPDEST PUSH1 0x0 DUP3 DUP3 LT ISZERO PUSH2 0x11AC JUMPI PUSH2 0x11AC PUSH2 0x116C JUMP JUMPDEST POP SUB SWAP1 JUMP JUMPDEST PUSH1 0x20 DUP1 DUP3 MSTORE PUSH1 0x32 SWAP1 DUP3 ADD MSTORE PUSH32 0x4552433732313A207472616E7366657220746F206E6F6E204552433732315265 PUSH1 0x40 DUP3 ADD MSTORE PUSH18 0x31B2B4BB32B91034B6B83632B6B2B73A32B9 PUSH1 0x71 SHL PUSH1 0x60 DUP3 ADD MSTORE PUSH1 0x80 ADD SWAP1 JUMP JUMPDEST PUSH1 0x1 PUSH1 0x1 PUSH1 0xA0 SHL SUB DUP6 DUP2 AND DUP3 MSTORE DUP5 AND PUSH1 0x20 DUP3 ADD MSTORE PUSH1 0x40 DUP2 ADD DUP4 SWAP1 MSTORE PUSH1 0x80 PUSH1 0x60 DUP3 ADD DUP2 SWAP1 MSTORE PUSH1 0x0 SWAP1 PUSH2 0x1236 SWAP1 DUP4 ADD DUP5 PUSH2 0xE6E JUMP JUMPDEST SWAP7 SWAP6 POP POP POP POP POP POP JUMP JUMPDEST PUSH1 0x0 PUSH1 0x20 DUP3 DUP5 SUB SLT ISZERO PUSH2 0x1252 JUMPI PUSH1 0x0 DUP1 REVERT JUMPDEST DUP2 MLOAD PUSH2 0xE3B DUP2 PUSH2 0xE05 JUMP INVALID PUSH10 0x7066733A2F2F516D5934 BALANCE PUSH21 0x71573271666D48346F4D486A594633373944653879 0x4E PUSH6 0x56476D55344C PUSH2 0x6646 MLOAD PUSH9 0x456751637575A26469 PUSH17 0x6673582212206C223BA5D8224AC7B80AB5 SMOD 0xCD MSIZE 0xA6 0xE8 PUSH8 0xF34EB4657DF60425 0xDD 0xB1 0x2F MSTORE NUMBER PUSH13 0x6A64736F6C634300080A0033A2 PUSH5 0x6970667358 0x22 SLT KECCAK256 INVALID PUSH4 0x4B72C1C2 0xAA 0xA6 0xDB 0xDA PUSH16 0xA883AA0575FEEBC285A790D07849F313 0x2D 0xD3 LOG4 PUSH23 0x3E64736F6C634300080A00330000000000000000000000 ",
  "sha1": "2da045ef4416de63a37b199ed6b544e939bb52c5",
  "source": "// SPDX-License-Identifier: MIT\npragma solidity 0.8.10;\n\nimport \"@openzeppelin/contracts/token/ERC721/utils/ERC721Holder.sol\";\nimport \"@openzeppelin/contracts/token/ERC721/IERC721.sol\";\n//import \"@tableland/contracts/TablelandTables.sol\";\nimport \"@openzeppelin/contracts/utils/Strings.sol\";\n\n//imports agregados\nimport \"@openzeppelin/contracts/access/Ownable.sol\";\nimport \"./NFTContract.sol\";\nimport \"@aave/contracts/interfaces/IPool.sol\";\nimport \"@aave/contracts/interfaces/IPoolAddressesProvider.sol\";\nimport \"@aave/contracts/interfaces/IAToken.sol\";\n\ncontract Child is ERC721Holder, Ownable {\n    mapping(address => uint256) public Units;\n    mapping(uint256 => address) Supliers;\n    address admin; //Administrador de la comunidad\n    uint256 community; //Id de Comunidad **** Como la hacemos constante??\n    address MasterContract; //address del contrato padre, siempre constante\n    // address del contrato de mumbai polygon, debe ser variable para cambiarlo faciul de red, pero por lo pronto asi esta mas facil\n    address _registry = 0x4b48841d4b32C4650E4ABc117A03FE8B51f38F68; //Polygon Mumbai\n\n    address fatherContract;\n    NFTContract paymentReceipt;\n\n    //ITablelandTables internal _tableland;\n    // Variables Tabla Units(Casas)\n    string public tableNameUnit;\n    uint256 internal _tableIdUnit;\n    uint256 internal counterUnit;\n    // Variables Tabla Payments\n    string public tableNamePay;\n    uint256 internal _tableIdPay;\n    uint256 internal counterPay;\n    // Variables Tabla Suppliers\n    string public tableNameSup;\n    uint256 internal _tableIdSup;\n    uint256 internal counterSup;\n    // Variables Tabla Suppliers Payments\n    string public tableNameSP;\n    uint256 internal _tableIdSP;\n    uint256 internal counterSP;\n\n    //Variables aave\n    //The address of the stablecoin to use\n    address public stableAddress;\n\n    //The aToken produced when you deposit the stablecoin\n    IAToken public aTokenContract;\n\n    //aave pool interface\n    IPool public aavePool;\n\n    //Balance of stable token in contract\n    uint256 public contractBalance;\n\n    //Maps address to stable amount deposited to contract\n    mapping(address => uint256) public depositedAmount;\n\n    constructor(uint256 _community, address _masterContract) {\n        community = _community;\n        MasterContract = _masterContract;\n        /* _tableland = ITablelandTables(_registry); */\n        fatherContract = msg.sender;\n\n        counterPay = 1;\n        counterSup = 1;\n        counterSP = 1;\n        counterUnit = 1;\n\n        // Aave hardcoded\n        aavePool = IPool(0xf368fF03831Accc37BEe8461523560f06918faEd);\n        aTokenContract = IAToken(0x1E7DEb5E5b6D92D8C51312C15Fa50d9b8AE76F1A);\n        stableAddress = 0x7b4Bf48b219765392A839D6a47178A3633d412a0;\n    }\n\n    function deployNFTs() public onlyOwner {\n        paymentReceipt = new NFTContract();\n    }\n\n    // Verifica que sea miembro de la comunidad\n    modifier requireMember() {\n        bool isMember = false;\n        uint256 unit;\n\n        unit = Units[msg.sender];\n        if (unit != 0) isMember = true;\n\n        require(isMember, \"Tu Wallet no esta dada de alta en esta comunidad\");\n        _;\n    }\n\n    // Verifica que no se haya creado la tabla\n    modifier tableExist(uint256 idtable) {\n        bool exist = false;\n\n        if (idtable != 0) exist = true;\n\n        require(!exist, \"Esta Tabla ya fue creada\");\n        _;\n    }\n\n    /*     function createTableUnit() external payable tableExist(_tableIdUnit) {\n        _tableIdUnit = _tableland.createTable(\n            address(this),\n            string.concat(\n                \"CREATE TABLE \",\n                \"TrustedSphereUnit\",\n                Strings.toString(community),\n                \"_\",\n                Strings.toString(block.chainid),\n                \" (idUnit int primary key, idCom int, NumUnit int, NameOwner text, Status int);\"\n            )\n        );\n\n        tableNameUnit = string.concat(\n            \"TrustedSphereUnit\",\n            Strings.toString(community),\n            \"_\",\n            Strings.toString(block.chainid),\n            \"_\",\n            Strings.toString(_tableIdUnit)\n        );\n    }  */\n\n    /*  function createTablePayments() external payable tableExist(_tableIdPay) {\n        _tableIdPay = _tableland.createTable(\n            address(this),\n            string.concat(\n                \"CREATE TABLE \",\n                \"TrustedSpherePay\",\n                Strings.toString(community),\n                \"_\",\n                Strings.toString(block.chainid),\n                \" (idPay int primary key, idUnit int, Fee int, Year int, Month int, date text, Status int);\"\n            )\n        );\n\n        tableNamePay = string.concat(\n            \"TrustedSpherePay\",\n            Strings.toString(community),\n            \"_\",\n            Strings.toString(block.chainid),\n            \"_\",\n            Strings.toString(_tableIdPay)\n        );\n    } */\n\n    /* function createTableSuppliers() external payable tableExist(_tableIdSup) {\n        _tableIdSup = _tableland.createTable(\n            address(this),\n            string.concat(\n                \"CREATE TABLE \",\n                \"TrustedSphereSup\",\n                Strings.toString(community),\n                \"_\",\n                Strings.toString(block.chainid),\n                \" (idSup int primary key, idCom int, SupName text, amount int, day int, status int);\"\n            )\n        );\n\n        tableNameSup = string.concat(\n            \"TrustedSphereSup\",\n            Strings.toString(community),\n            \"_\",\n            Strings.toString(block.chainid),\n            \"_\",\n            Strings.toString(_tableIdSup)\n        );\n    } */\n\n    /*\n     */\n\n    //Add a new unit to de DB and the mapping \"Units\"\n    function addUnit(\n        uint256 _num,\n        string memory _name,\n        address _ownerW\n    ) external payable {\n        Units[msg.sender] = _num;\n\n        /* _tableland.runSQL(\n            address(this), //revisar si es esta address o tienes que ser la del padre\n            _tableIdUnit,\n            string.concat(\n                \"INSERT INTO \",\n                tableNameUnit,\n                \" (idunit, idcom, numunit, nameowner, status) VALUES (\",\n                Strings.toString(counterUnit),\n                \", \",\n                Strings.toString(community),\n                \", \",\n                Strings.toString(_num),\n                \", '\",\n                _name,\n                \"', 1)\"\n            )\n        ); */\n        counterUnit++;\n    }\n\n    function depositt(\n        uint256 _fee,\n        uint256 _unit,\n        uint256 _month,\n        uint256 _year\n    ) public {\n        require(\n            IERC20(stableAddress).allowance(msg.sender, address(this)) >= _fee,\n            \"needs approval\"\n        );\n        IERC20(stableAddress).transferFrom(msg.sender, address(this), _fee);\n        depositedAmount[msg.sender] = _fee;\n        contractBalance += _fee;\n        //Save to DB\n        /*  _tableland.runSQL(\n            address(this),\n            _tableIdPay,\n            string.concat(\n                \"INSERT INTO \",\n                tableNamePay,\n                \" (idPay, idUnit, Fee, Year, Month, date, status) VALUES (\",\n                Strings.toString(counterPay),\n                \", \",\n                Strings.toString(_unit),\n                \", \",\n                Strings.toString(_fee),\n                \", \",\n                Strings.toString(_year),\n                \", \",\n                Strings.toString(_month),\n                \", \",\n                Strings.toString(block.timestamp),\n                \", 1)\"\n            )\n        ); */\n        //counterPay++;\n\n        paymentReceipt.createCollectible(msg.sender);\n    }\n\n    // This function have to be from frontend with the tableland API\n    /*function getLastMonth(address _user) view returns (uint, uint) {\n    }*/\n\n    function addSuplier(\n        string memory _name,\n        uint256 _amount,\n        address _supWallet,\n        uint256 _day\n    ) external payable {\n        Supliers[counterSup] = _supWallet;\n\n        //Save to DB\n        /* _tableland.runSQL(\n            address(this),\n            _tableIdSup,\n            string.concat(\n                \"INSERT INTO \",\n                tableNameSup,\n                \" (idSup, idCom, SupName, amount, day, status) VALUES (\",\n                Strings.toString(counterSup),\n                \", \",\n                Strings.toString(community),\n                \", '\",\n                _name,\n                \"', \",\n                Strings.toString(_amount),\n                \", \",\n                Strings.toString(_day),\n                \", 1)\"\n            )\n        ); */\n        counterSup++;\n    }\n\n    //returns the contract balance (community balance)\n    function getBalance() public view returns (uint256) {\n        return address(this).balance;\n    }\n\n    function suplierPayme(\n        uint256 _idSup,\n        uint256 _amount,\n        uint256 _year,\n        uint256 _month\n    ) external onlyOwner {\n        require(address(this).balance > _amount, \"Not enough money!!\");\n\n        address supWallet = Supliers[_idSup];\n\n        (bool resultado, bytes memory salida) = supWallet.call{value: _amount}(\n            \"\"\n        );\n        require(resultado, \"nos fallo esta madre\");\n\n        //Save to DB\n        /* _tableland.runSQL(\n            address(this),\n            _tableIdSP,\n            string.concat(\n                \"INSERT INTO \",\n                tableNameSP,\n                \" (idSP, idSup, amount, year, month, date, status) VALUES (\",\n                Strings.toString(counterSP),\n                \", \",\n                Strings.toString(_idSup),\n                \", \",\n                Strings.toString(_amount),\n                \", \",\n                Strings.toString(_year),\n                \", \",\n                Strings.toString(_month),\n                \", '\",\n                Strings.toString(block.timestamp),\n                \"', 1)\"\n            )\n        ); */\n        counterSP++;\n    }\n\n    //Regresa la Unit del usuario que ingreso a la dapp, si es 0 no esta dado de alta\n    function getUnit() public view returns (uint256) {\n        return Units[msg.sender];\n    }\n\n    // Funcionalidades AAVE\n    /**\n        @dev Lets contract owner deposit _amount to aave pool\n\n        Requirements:\n            - '_amount\" has to be smaller or equal to tha amount of ERC20\n            the contract has\n     */\n\n    function supplyToPool(uint256 _amount) public onlyOwner {\n        require(_amount <= contractBalance, \"Insufficient funds in contract\");\n        IERC20(stableAddress).approve(address(aavePool), _amount);\n        aavePool.supply(stableAddress, _amount, address(this), 0);\n        contractBalance -= _amount;\n    }\n\n    /**\n        @dev Lets contract owner withdraw '_amount' from pool\n\n        Requirements:\n            - '_amount' has to be lees or equal to the amount previously \n            deposited. \n     */\n    function withdrawFromPool(uint256 _amount) public onlyOwner {\n        require(\n            _amount <= aTokenContract.balanceOf(address(this)),\n            \"Insufficient aTokens\"\n        );\n        //Quita lo siguiente\n        //aTokenContract.approve(address(aavePool), _amount);\n        aavePool.withdraw(stableAddress, _amount, address(this));\n        //Manda a padre fee por uso de infraestructura (1%)\n        IERC20(stableAddress).transfer(fatherContract, _amount / 100);\n        contractBalance += (_amount / 100) * 99;\n    }\n}\n\n/******************************************************************************************\n  ACLARACIONES \n  No se esta revisando todavia duplicados en numero de units, wallets, supplieres, etc...\n  */\n",
  "sourcePath": "contracts/Child.sol",
  "type": "contract"
}